S00E00004761746865722E73726563BB
S11300000C9446000C946F000C946F000C946F00D9
S11300100C946F000C946F000C94DF010C946F002F
S11300200C946F000C946F000C946F000C949D055D
S11300300C946F000C946F000C94D4030C946F0018
S11300400C946F000C946F000C946F000C946F0070
S11300500C946F000C946F000C946F000C94BF050B
S11300600C946F000C946F009904ED0403053C0597
S1130070430520054605B306B707B707BC06BF0608
S1130080C206C606CA06CE068B07E20611241FBEA8
S1130090CFEFD8E0DEBFCDBF14BE0FB6F894A8955D
S11300A080916000886180936000109260000FBEB0
S11300B011E0A0E0B1E0E6EFFAE102C005900D9294
S11300C0A032B107D9F721E0A0E2B1E001C01D924E
S11300D0AB3AB207E1F70E94300A0C94790D0C9404
S11300E000000FB6F894A4B1209152012A2B24B930
S11300F021E030915201203029F0000025B1232B5A
S113010025B904C000000000000000C00000000089
S11301100000309525B1232325B92EEA2A95F1F75D
S11301202BEE30B735FF0AC0A4B930915201309597
S113013025B1232325B90FBE80E0089500002A9538
S113014081F721E030915201203029F0000025B1DF
S1130150232B25B904C000000000000000C00000EB
S113016000000000309525B1232325B9000024E5C3
S11301702A95F1F7FC018CE0619170E0660F771F1E
S1130180616072609AE041E050E09A0126233723CF
S1130190232B30915201203029F0000025B1232B6C
S11301A025B904C000000000000000C000000000E9
S11301B00000309525B1232325B9000021E52A95B7
S11301C0F1F7440F551F9A9501F78A95A9F620B7C0
S11301D0206120BFA4B930915201309525B1232369
S11301E025B90FBE81E00895089580E090E0089558
S11301F00895DF92EF92FF920F931F93CF93DF93B3
S1130200F89414B817B81AB815B818B81BB8529A95
S11302105A9A14BC85E085BD8FEF87BD82E0809338
S11302206E0010928000109281002FE83BE0309322
S113023089002093880080936F005398239891EA53
S11302409093B0008093B1001092B4001092B30068
S11302508BE080BF83E080937F0086E080937C0006
S1130260EAE7F0E083E88083808180648083808192
S113027086FDFDCF10927C0083EA80937A0081E0B2
S113028080937B0081E090E00E940F0D8F3F11F07E
S11302908093660010925C0181E080933501809325
S11302A079011092530110928D0180E990E00E942F
S11302B00F0D8093520180915201887319F081E0EF
S11302C08093520110927D0110927C018FEF90E097
S11302D090937B0180937A011092580110925901F6
S11302E010925A0110925B0181E08093220182E412
S11302F09FE090938C0180938B0180EB90E00E94AF
S11303000F0DC82F81EB90E00E940F0D2C2F30E0D1
S1130310382B30938F0120938E0185E090E00E946A
S11303200F0D8093920189E090E00E940F0D80935D
S11303307E018CE090E00E940F0D8093900184E197
S113034090E00E940F0D809391010F2EFDE5EF2E9A
S1130350F1E0FF2EF02D06E311E0C0E2D0E0CE0183
S11303600E940F0DD82ECE0101960E940F0D2D2D47
S113037030E0322F2227282BF701219331937F017C
S1130380CE01C0960E940F0DD82ECE01C1960E94B8
S11303900F0D2D2D30E0322F2227282BF801219329
S11303A031938F012296CC33D105C9F67894DF912D
S11303B0CF911F910F91FF90EF90DF9008951F92BE
S11303C00F920FB60F9211248F930FB6F894A8953D
S11303D080916000886180936000109260000FBE7D
S11303E08F910F900FBE0F901F901895009741F0BA
S11303F0EFECF7E03197F1F700C000000197C1F787
S113040008958093B3006093B40008958FEF8093B0
S1130410B3008093B4008FE090E00E94F601089549
S113042080915C01811114C0F89486E080937C0073
S1130430EAE7F0E083E880838081806480838081C0
S113044086FDFDCF8091780090917900789408958D
S11304508FEF9FEF08953F924F925F926F927F923A
S11304608F929F92AF92BF92CF92DF92EF92FF92C0
S11304700F931F93CF93DF9300D000D0CDB7DEB797
S11304809A838983FC010280F381E02DFC83EB8352
S1130490E43823E0F2070CF082C09F01809136011A
S11304A0909137018E179F0708F47CC08091380122
S11304B0909139018E179F0768F0EAE3F1E012E0AA
S11304C0819191918217930730F01F5F1E30C1F71D
S11304D01DE001C011E0812F90E0FC01EE0FFF1F31
S11304E0EA5CFE4F60807180880F991FFC01EC5C10
S11304F0FE4F80819181B301681B790B80E090E00D
S11305000E947B0B9B01AC010E94670A6B017C017A
S11305104B815C81BA01550F880B990B0E947D0BAE
S11305204B015C01B30180E090E00E947B0B2B0146
S11305303C01612F70E080E090E00E947B0B20E0A2
S113054030E040E05FE30E94090C20E030E0A901C4
S11305500E94670AA70196010E94090C9B01AC0145
S1130560C301B2010E94660A9B01AC01C501B4013A
S11305700E94660A20E030E040E251E40E94090C47
S11305800E94450B5B01C701B6010E94450BAB01FC
S1130590BC01C501BA010E94760C362E04C0332476
S11305A03A9401C0312C8B819C818D3B92400CF498
S11305B0DEC0E981FA81A080B180950180915D015E
S11305C090915E018A159B0508F4D4C080915F0167
S11305D0909160018A159B0580F0E1E6F1E012E05C
S11305E0819191918217930728F01F5F1E30C1F704
S11305F01AE568C01F3F11F4BFC011E0812F90E0DD
S1130600FC01EE0FFF1FE35AFE4F60807180880FDC
S1130610991FFC01E55AFE4F80819181B301681B4B
S1130620790B80E090E00E947B0B9B01AC010E945F
S1130630670A6B017C01B501BB0C880B990B0E9406
S11306407D0B4B015C01B30180E090E00E947B0BC9
S11306502B013C01612F70E080E090E00E947B0B55
S113066020E030E040E05FE30E94090C20E030E04D
S1130670A9010E94670AA70196010E94090C9B0127
S1130680AC01C301B2010E94660A9B01AC01C50121
S1130690B4010E94660A20E030E040E251E40E9486
S11306A0090C0E94450B8B01C701B6010E94450B42
S11306B0AB01BC01C801BA010E94760C162F6F3F32
S11306C009F455C0FFEF3F1609F44EC02B813C815D
S11306D0B901330F880B990B0E947D0B6B017C01D0
S11306E0632D70E080E090E00E947B0B4B015C0185
S11306F0A701960160E070E081E694E40E94660A36
S11307009B01AC01C501B4010E94090C4B015C01C1
S1130710612F70E080E090E00E947B0B2B013C0194
S113072020E030E04FE254E4C701B6010E94660ABB
S11307309B01AC01C301B2010E94090C9B01AC01F5
S1130740C501B4010E94670A20E030E048E453E4A4
S11307500E94D30A20E030E044E052E40E94670A99
S11307600E944C0B862F0AC081E2810F07C081E2F0
S1130770830D04C010E0A6CF1AE5A4CF0F900F900C
S11307800F900F90DF91CF911F910F91FF90EF90F9
S1130790DF90CF90BF90AF909F908F907F906F909D
S11307A05F904F903F9008951F920F920FB60F9253
S11307B011242F933F934F935F936F937F938F9362
S11307C09F93AF93BF93EF93FF9320917C0130915C
S11307D07D0180917A0190917B01820F931F909308
S11307E07D0180937C018FEF90E090937B01809357
S11307F07A018FEF87BD8091580190915901A091A2
S11308005A01B0915B010196A11DB11D809358015D
S113081090935901A0935A01B0935B0180915C01BC
S113082081112DC080918B0190918C0120917C01CC
S113083030917D018217930710F580912201843055
S1130840F1F4E0910601F091070109950097B9F0E0
S11308500E947100882351F0E0910401F091050198
S1130860099510927D0110927C0109C00E94FF0C31
S11308709C01332730937B0120937A0187BDFF913C
S1130880EF91BF91AF919F918F917F916F915F9104
S11308904F913F912F910F900FBE0F901F9018957D
S11308A080FF02C0559A01C0559881FF02C0549A36
S11308B001C0549882FF02C03B9A01C03B9883FF59
S11308C002C03A9A01C03A9884FF02C03D9A01C01E
S11308D03D9885FF02C03C9A08953C9808954C01C8
S11308E07B01712C0F2EF3EBAF2EB12CF02D0F2EBC
S11308F0F4EBCF2ED12CF02D66246A946894332423
S113090032F822242394CAE7D0E00F2EF8E14F2EC8
S1130910F02D0F2EF9E25F2EF02D00E610E0E091AD
S11309202201F0E0E730F105D0F7EC5CFF4F0C94C6
S11309308A0CF89480B7877F80BF88818F778883FB
S113094014B817B81AB815B818B81BB80FB6F89475
S1130950A895409260000FBE50926000F80180811B
S11309608064808383B7817F846083BFF89483B776
S1130970816083BF7894889583B78E7F83BF789492
S113098010925C01529A5A9A88818068888387E51C
S113099092E00197F1F700C0000080B7886180BF42
S11309A08FE30E945004EFE1FEE43197F1F700C0B9
S11309B0000080915C01882361F083E00E94500470
S11309C0FFEF20E782E0F15020408040E1F700C0D3
S11309D0000080E00E945004A2CF8CE00E945004EA
S11309E0EFECF7E03197F1F700C0000080E00E94DF
S11309F05004FFEF21EE84E0F15020408040E1F705
S1130A0000C000008CCF0E9410028B3AE2E09E07E7
S1130A1024F08CE00E94500482CF8938F2E09F07D2
S1130A2024F080E30E9450047ACF8736924024F069
S1130A308FE00E94500473CF83E00E9450046FCF74
S1130A40489916C0822D0E9450048FEC97E00197BC
S1130A50F1F700C0000080E00E9450049FEFE1EE37
S1130A60F4E09150E040F040E1F700C0000057CFBF
S1130A7080E00E94500453CF711003C0F401099523
S1130A80722C30922201F701099549CF80912001FF
S1130A90811107C0F5011082F60110821092210124
S1130AA03ECF9091200180912101981709F437CF0E
S1130AB0809120018093210180912001813089F46B
S1130AC0F5016082F60110828FE295E70197F1F754
S1130AD000C0000080919201F5018083F60110822C
S1130AE01ECF80912001823089F4F5011082F60135
S1130AF060828FE295E70197F1F700C000008091D2
S1130B007E01F5011082F601808309CFF501108280
S1130B10F6016082F5016082F60160828FE295E75A
S1130B200197F1F700C0000080919101909190012C
S1130B30F5019083F6018083F2CE1F920F920FB6D7
S1130B400F9211248F939F9310928100109285002D
S1130B501092840081E08093350180937901109292
S1130B605C0110927C0093EA90937A0080937B005E
S1130B709F918F910F900FBE0F901F9018951F9209
S1130B800F920FB60F9211242F933F934F935F93BD
S1130B906F937F938F939F93AF93BF93CF93DF9381
S1130BA0EF93FF93209184003091850081E080933E
S1130BB05C0180913501882331F1109285001092F7
S1130BC0840081E08093810010928D0110923501A0
S1130BD080917901882309F4CAC1EAE7F0E08081B1
S1130BE086FDFDCF80917800909179009093570114
S1130BF08093560181E080937C0093EA90937A007D
S1130C0080937B00B4C1C901875891098437994006
S1130C10A8F010928100109285001092840081E067
S1130C20809335018093790110925C0110927C00CD
S1130C3093EA90937A0080937B0099C126583109F6
S1130C40A4EFB0E00E94900CAA27BB27883078F468
S1130C5021E030E0F90102C0EE0FFF1F8A95E2F7B0
S1130C60CF0190918D01892B80938D0180C181E00A
S1130C708093350180917901882351F1EAE7F0E00E
S1130C80808186FDFDCF80917800909179009093CA
S1130C9055018093540110927C0083EA80937A007A
S1130CA081E080937B0080918D01882361F0109214
S1130CB08100109285001092840081E08093790174
S1130CC010925C0154C110927901109253014FC1EA
S1130CD080915301E82FF0E0E158FE4F90918D018F
S1130CE090838F5F809353018C3009F040C1109240
S1130CF08100109285001092840081E08093790134
S1130D0010925C01C0918901D0918A018FE791E032
S1130D100E94CA07C817D90709F029C18091880120
S1130D20882354F0E0910801F091090164E571E031
S1130D308FE791E009951BC18858833030F05398B0
S1130D4023981092B4001092B3008091880190E02F
S1130D50FC01E058F109EB30F10508F008C1E55C4D
S1130D60FF4F0C948A0CEEE6F0E080818D7F808347
S1130D7016BCE0E0F0E70995E0E0F0E00995109298
S1130D802201F5C081E080932201F1C085E08093C7
S1130D902201EDC082E080932201E9C0809122010A
S1130DA0833009F4E4C080912201843009F4DFC067
S1130DB0539A239A1092B4001092B30083E0809364
S1130DC02201D5C080917F01823009F44BC028F400
S1130DD0882351F08130D9F18CC0833009F457C095
S1130DE0843009F468C085C080912201863009F0FE
S1130DF0BEC060918E0180EB90E00E94170D60915F
S1130E008F0181EB90E00E94170D6091920185E0C3
S1130E1090E00E94170D60917E0189E090E00E94AD
S1130E20170D609190018CE090E00E94170D609185
S1130E30910184E190E00E94170D53982398109239
S1130E40B4001092B30081E08093220152C08091DB
S1130E5080019091810190938F0180938E01109273
S1130E6020014BC080912001813039F4909182019E
S1130E7080919201981709F440C01092210181E0F9
S1130E8080932001809182018093920136C08091E9
S1130E902001823031F49091830180917E01981772
S1130EA061F11092210182E08093200180918301FD
S1130EB080937E0122C080912001833061F490915F
S1130EC0850180919101981306C0909184018091CD
S1130ED09001981791F01092210183E080932001F2
S1130EE0EFE7F1E085818093900186818093910101
S1130EF004C080917F018823D1F180912201863042
S1130F00B1F1539A239A1092B4001092B30086E080
S1130F10809322012CC080912201863081F0539A63
S1130F20239A1092B4001092B30080E00E945004FF
S1130F30109220011092210186E08093220181E029
S1130F4090E09C0100907F0102C0220F331F0A949D
S1130F50E2F780918E0190918F0182239323892B54
S1130F6021F081E08093200102C010922001FF91C2
S1130F70EF91DF91CF91BF91AF919F918F917F912D
S1130F806F915F914F913F912F910F900FBE0F90F2
S1130F901F901895FC01AC01465F5F4F8FEF9FEFE8
S1130FA021918227082E8295807F8025092E982FF3
S1130FB082958F700826869598278927880F880F31
S1130FC0880F8025E417F50759F708958FE991E014
S1130FD0089581E090E09093240180932301089583
S1130FE00895CF93DF93EC019CE0FE01A3E9B1E007
S1130FF001900D929A95E1F7888180933001CB019D
S11310000E942B0290E090932F0180932E0181E0A7
S113101090E0909334018093330190933201809354
S11310203101DF91CF9108958091230190912401A2
S1131030019771F4109224011092230181E00E941F
S1131040500484E690E00E94F60180E00E9450047F
S11310500895CF93DF93CFE9D1E0198681E08883A7
S1131060CE010E94CA079B878A87DF91CF9108959A
S113107020912B0130912C012817390759F19093B5
S11310802C0180932B01009729F460E080E00E94FA
S1131090010208958130910549F40E94060260918D
S11310A09101809190010E9401020895823091057E
S11310B041F40E94060260E0809192010E940102C4
S11310C00895039739F40E94060260917E0180E03E
S11310D00E940102089581E090E00E94380808957A
S11310E0CF93DF9380911201909113018130910588
S11310F091F58091100190911101892B61F010926A
S113110011011092100181E090E00E94380881E002
S11311100E945004A8C020912E0130912F0180918B
S11311201C0190911D01821793070CF09CC080E074
S113113090E00E94380880E10E94500482E090E030
S1131140909313018093120181E090E09093110138
S11311508093100188C0029709F085C08091100126
S113116090911101892BC1F180912E0190912F0151
S113117090931B0180931A018091140190911501A1
S11311800E94380881E10E945004C1E0D0E0D0936D
S11311902601C093250120910A0130910B018CEDA9
S11311A095E0AC01249FC001259F900D349F900DC4
S11311B011240E94F601D0930B01C0930A0181E02F
S11311C090E00E94380880ED97E00E94F6011092AA
S11311D011011092100147C020912E0130912F016E
S11311E080911A0190911B012817390774F180E04E
S11311F090E00E94380885E00E9450048091140118
S1131200909115018330910539F482E090E0909338
S113121015018093140108C0029731F483E090E033
S1131220909315018093140183E090E090930B0157
S113123080930A0181E090E0909311018093100162
S113124010922601109225010EC0109226011092D0
S1131250250181E090E09093130180931201909313
S113126011018093100180912E0190912F01909390
S11312701D0180931C01DF91CF910895CF93DF93DB
S113128080910E0190910F01892B91F080918E0134
S113129090918F01039731F481E290E090931F01C4
S11312A080931E010E946B0810920F0110920E0190
S11312B080913301909134010197E9F520912E0139
S11312C030912F0180911E0190911F018217930785
S11312D024F18091300181508230F8F480E090E074
S11312E00E94380885E10E94500480910C0190917D
S11312F00D01892BE1F0CFE9D1E0198682E08883E2
S1131300CE010E94CA079B878A8710920D01109212
S11313100C0181E080932D010AC08091300181305D
S113132031F480912D01811102C00E947008109245
S11313303401109233014091580150915901609148
S11313405A0170915B018091270190912801A0912D
S11313502901B0912A01805A9F4FAF4FBF4F841784
S11313609507A607B70708F078C0809158019091B7
S11313705901A0915A01B0915B0180932701909388
S11313802801A0932901B0932A0180913101909101
S11313903201892B29F010923201109231015DC083
S11313A08091250190912601019749F580911401BE
S11313B0909115018330910539F482E090E0909387
S11313C015018093140108C0029731F483E090E082
S11313D0909315018093140180911401909115014B
S11313E00E94380884E991E10E94F60181E090E0CE
S11313F00E94380880ED97E00E94F6012EC0CFE9E4
S1131400D1E019861882CE010E94CA079B878A8779
S113141083E090E0909315018093140110922D01C4
S113142081E090E090931301809312019093110155
S11314308093100188EE93E090931D0180931C012A
S113144090931901809318019093170180931601CA
S11314500E946B0884E10E945004DF91CF910895AB
S11314600E94F90080918E0190918F01039799F465
S113147086EE97E0909307018093060189EE97E04A
S1131480909305018093040164E178E089E298E097
S11314900E946F0418C081EF97E090930901809334
S11314A0080186EE97E0909307018093060189EE88
S11314B097E090930501809304016EE379E080EF57
S11314C097E00E946F0480E090E008955058BB2795
S11314D0AA270E947E0A0C94CF0B0E94C10B38F0FD
S11314E00E94C80B20F039F49F3F19F426F40C94A1
S11314F0BE0B0EF4E095E7FB0C94B80BE92F0E94A9
S1131500E00B58F3BA17620773078407950720F0B6
S113151079F4A6F50C94020C0EF4E0950B2EBA2F78
S1131520A02D0B01B90190010C01CA01A0011124E5
S1131530FF27591B99F0593F50F4503E68F11A1691
S1131540F040A22F232F342F4427585FF3CF469522
S113155037952795A795F0405395C9F77EF41F1644
S1131560BA0B620B730B840BBAF09150A1F0FF0F0E
S1131570BB1F661F771F881FC2F70EC0BA0F621FFA
S1131580731F841F48F4879577956795B795F795EA
S11315909E3F08F0B0CF9395880F08F09927EE0F7F
S11315A09795879508950E94E70A0C94CF0B0E94A3
S11315B0C80B58F00E94C10B40F029F45F3F29F09A
S11315C00C94B80B51110C94030C0C94BE0B0E9498
S11315D0E00B68F39923B1F3552391F3951B550B55
S11315E0BB27AA2762177307840738F09F5F5F4FF2
S11315F0220F331F441FAA1FA9F335D00E2E3AF031
S1131600E0E832D091505040E695001CCAF72BD048
S1131610FE2F29D0660F771F881FBB1F2617370799
S11316204807AB07B0E809F0BB0B802DBF01FF27CB
S113163093585F4F3AF09E3F510578F00C94B80BE5
S11316400C94030C5F3FE4F3983ED4F386957795AE
S11316506795B795F7959F5FC9F7880F911D969584
S1131660879597F90895E1E0660F771F881FBB1FE0
S1131670621773078407BA0720F0621B730B840B8D
S1131680BA0BEE1F88F7E09508950E944C0B6894FE
S1131690B1110C94030C08950E94E80B88F09F5735
S11316A098F0B92F9927B751B0F0E1F0660F771F82
S11316B0881F991F1AF0BA95C9F714C0B13091F078
S11316C00E94020CB1E008950C94020C672F782F4D
S11316D08827B85F39F0B93FCCF38695779567953D
S11316E0B395D9F73EF490958095709561957F4FA9
S11316F08F4F9F4F0895E89409C097FB3EF490954F
S11317008095709561957F4F8F4F9F4F9923A9F0D6
S1131710F92F96E9BB279395F69587957795679565
S1131720B795F111F8CFFAF4BB0F11F460FF1BC0A9
S11317306F5F7F4F8F4F9F4F16C0882311F096E93C
S113174011C0772321F09EE8872F762F05C06623EA
S113175071F096E8862F70E060E02AF09A95660FA3
S1131760771F881FDAF7880F9695879597F908955C
S113177097F99F6780E870E060E008959FEF80EC40
S1131780089500240A9416161706180609060895E3
S113179000240A9412161306140605060895092E49
S11317A00394000C11F4882352F0BB0F40F4BF2BB8
S11317B011F460FF04C06F5F7F4F8F4F9F4F0895F8
S11317C057FD9058440F551F59F05F3F71F04795EE
S11317D0880F97FB991F61F09F3F79F087950895D3
S11317E0121613061406551FF2CF4695F1DF08C0F2
S11317F0161617061806991FF1CF8695710561050F
S113180008940895E894BB2766277727CB0197F9B6
S113181008950E941C0C0C94CF0B0E94C10B38F04D
S11318200E94C80B20F0952311F00C94B80B0C9473
S1131830BE0B11240C94030C0E94E00B70F3959FD3
S1131840C1F3950F50E0551F629FF001729FBB27B3
S1131850F00DB11D639FAA27F00DB11DAA1F649F4F
S11318606627B00DA11D661F829F2227B00DA11D02
S1131870621F739FB00DA11D621F839FA00D611D88
S1131880221F749F3327A00D611D231F849F600DA9
S1131890211D822F762F6A2F11249F5750409AF0D2
S11318A0F1F088234AF0EE0FFF1FBB1F661F771F5E
S11318B0881F91505040A9F79E3F510580F00C9429
S11318C0B80B0C94030C5F3FE4F3983ED4F3869575
S11318D077956795B795F795E7959F5FC1F7FE2BC9
S11318E0880F911D9695879597F9089597FB072E74
S11318F016F4009407D077FD09D00E949F0C07FCD2
S113190005D03EF4909581959F4F0895709561950B
S11319107F4F0895EE0FFF1F0590F491E02D099479
S1131920A29FB001B39FC001A39F700D811D11241C
S1131930911DB29F700D811D1124911D0895AA1B44
S1131940BB1B51E107C0AA1FBB1FA617B70710F0A6
S1131950A61BB70B881F991F5A95A9F780959095D8
S1131960BC01CD0108958F929F92AF92BF92CF9206
S1131970DF92EF92FF92CF93DF93EC01688179813C
S11319808A819B81611571058105910521F464E2C9
S113199079ED8BE597E02DE133EF41E050E00E94D3
S11319A0250D49015A019B01AC01A7EAB1E40E944B
S11319B0440D6B017C01ACEEB4EFA50194010E94CF
S11319C0520DDC01CB018C0D9D1DAE1DBF1DB7FF5B
S11319D003C00197A109B04888839983AA83BB8374
S11319E09F77DF91CF91FF90EF90DF90CF90BF90E2
S11319F0AF909F908F9008950E94B30C089580E05B
S1131A0091E00E94B30C0895A0E0B0E0809300013F
S1131A1090930101A0930201B09303010895F999F1
S1131A20FECF92BD81BDF89A992780B50895262FDF
S1131A30F999FECF1FBA92BD81BD20BD0FB6F894AF
S1131A40FA9AF99A0FBE01960895052E97FB1EF493
S1131A5000940E943C0D57FD07D00E94570D07FCCF
S1131A6003D04EF40C943C0D50954095309521953F
S1131A703F4F4F4F5F4F08959095809570956195B6
S1131A807F4F8F4F9F4F08950E94900CA59F900DFC
S1131A90B49F900DA49F800D911D11240895B7FF4C
S1131AA00C94440D0E94440D821B930B0895A1E2F3
S1131AB01A2EAA1BBB1BFD010DC0AA1FBB1FEE1FC4
S1131AC0FF1FA217B307E407F50720F0A21BB30B0F
S1131AD0E40BF50B661F771F881F991F1A9469F78B
S1131AE060957095809590959B01AC01BD01CF01E7
S1091AF00895F894FFCFF5
S1131AF601000000F800F500F400010001000100F7
S1131B06010001000300E803E803E803E8032100F9
S9030000FC
