:100000000C9446000C946F000C946F000C946F00DD
:100010000C946F000C946F000C94DF010C946F0033
:100020000C946F000C946F000C946F000C940606F7
:100030000C946F000C946F000C943D040C946F00B2
:100040000C946F000C946F000C946F000C946F0074
:100050000C946F000C946F000C946F000C942806A5
:100060000C946F000C946F00020556056C05A505F5
:10007000AC058905AF051C072008200825072807BF
:100080002B072F0733073707F4074B0711241FBE31
:10009000CFEFD8E0DEBFCDBF14BE0FB6F894A89561
:1000A00080916000886180936000109260000FBEB4
:1000B00011E0A0E0B1E0E0ECF8E102C005900D92A3
:1000C000AA30B107D9F721E0AAE0B1E001C01D9242
:1000D000A439B207E1F70E942E090C945E0C0C942F
:1000E00000000FB6F894A4B120913B012A2B24B94B
:1000F00021E030913B01203029F0000025B1232B75
:1001000025B904C000000000000000C0000000008D
:100110000000309525B1232325B92EEA2A95F1F761
:100120002BEE30B735FF0AC0A4B930913B013095B2
:1001300025B1232325B90FBE80E0089500002A953C
:1001400081F721E030913B01203029F0000025B1FA
:10015000232B25B904C000000000000000C00000EF
:1001600000000000309525B1232325B9000024E5C7
:100170002A95F1F7FC018CE0619170E0660F771F22
:10018000616072609AE041E050E09A0126233723D3
:10019000232B30913B01203029F0000025B1232B87
:1001A00025B904C000000000000000C000000000ED
:1001B0000000309525B1232325B9000021E52A95BB
:1001C000F1F7440F551F9A9501F78A95A9F620B7C4
:1001D000206120BFA4B930913B01309525B1232384
:1001E00025B90FBE81E00895089580E090E008955C
:1001F0000895DF92EF92FF920F931F93CF93DF93B7
:10020000F89414B817B81AB815B818B81BB8529A99
:100210005A9A14BC85E085BD8FEF87BD82E080933C
:100220006E0010928000109281002FE83BE0309326
:1002300089002093880080936F005398239891EA57
:100240009093B0008093B1001092B4001092B3006C
:100250008BE080BF83E080937F0086E080937C000A
:10026000EAE7F0E083E88083808180648083808196
:1002700086FDFDCF10927C0083EA80937A0081E0B6
:1002800080937B0081E090E00E94F40B8F3F11F09F
:10029000809366001092450181E080931E01809357
:1002A000620110923C011092760180E990E00E9478
:1002B000F40B80933B0180913B01887319F081E03E
:1002C00080933B0110926601109265018FEF90E0E0
:1002D0009093640180936301109241011092420156
:1002E000109243011092440181E080930C0182E45A
:1002F0009FE0909375018093740180EB90E00E94E1
:10030000F40BC82F81EB90E00E94F40B2C2F30E00F
:10031000382B309378012093770185E090E00E949C
:10032000F40B80937B0189E090E00E94F40B8093B2
:1003300067018CE090E00E94F40B8093790184E1E6
:1003400090E00E94F40B80937A010F2EF6E4EF2EDA
:10035000F1E0FF2EF02D0FE111E0C0E2D0E0CE0180
:100360000E94F40BD82ECE0101960E94F40B2D2D85
:1003700030E0322F2227282BF701219331937F0180
:10038000CE01C0960E94F40BD82ECE01C1960E94D9
:10039000F40B2D2D30E0322F2227282BF80121934A
:1003A00031938F012296CC33D105C9F67894DF9131
:1003B000CF911F910F91FF90EF90DF9008951F92C2
:1003C0000F920FB60F9211248F930FB6F894A89541
:1003D00080916000886180936000109260000FBE81
:1003E0008F910F900FBE0F901F901895009741F0BE
:1003F000EFECF7E03197F1F700C000000197C1F78B
:1004000008958093B3006093B40008958FEF8093B4
:10041000B3008093B4008FE090E00E94F60108954D
:100420006F927F929F92AF92BF92CF92DF92EF92A4
:10043000FF920F931F93CF93DF9300E010E0912C76
:10044000CCE7D0E0EAE7F0E00F2EF8E76F2E712C52
:10045000F02D0F2EF3EAAF2EF02D6BE770E0BB24EA
:10046000B3940F2EF6E0CF2EF02D83E8EE24E39424
:10047000F12CD12CF894C882808390819064908371
:10048000908196FDFDCFD3012D913C9121709081FB
:1004900090649083908196FDFDCFD3014D915C9146
:1004A0001882A082DB01BC927894D394417024130B
:1004B00002C0DD20FCF6222341F09701002E02C08D
:1004C000220F331F0A94E2F7922A0F5F1F4F083062
:1004D000110579F6892DDF91CF911F910F91FF9032
:1004E000EF90DF90CF90BF90AF909F907F906F90F4
:1004F000089580914501811114C0F89486E080939D
:100500007C00EAE7F0E083E8808380818064808378
:10051000808186FDFDCF809178009091790078945C
:1005200008958FEF9FEF08953F924F925F926F92E1
:100530007F928F929F92AF92BF92CF92DF92EF9273
:10054000FF920F931F93CF93DF9300D000D0CDB7CE
:10055000DEB79A838983FC010280F381E02DFC835E
:10056000EB83E43823E0F2070CF082C09F01809116
:100570001F01909120018E179F0708F47CC0809185
:100580002101909122018E179F0768F0E3E2F1E0CC
:1005900012E0819191918217930730F01F5F1E3016
:1005A000C1F71DE001C011E0812F90E0FC01EE0FCA
:1005B000FF1FE15EFE4F60807180880F991FFC0174
:1005C000E35EFE4F80819181B301681B790B80E06F
:1005D00090E00E94600A9B01AC010E944C096B01F3
:1005E0007C014B815C81BA01550F880B990B0E94ED
:1005F000620A4B015C01B30180E090E00E94600A56
:100600002B013C01612F70E080E090E00E94600AC5
:1006100020E030E040E05FE30E94EE0A20E030E0BE
:10062000A9010E944C09A70196010E94EE0A9B01B4
:10063000AC01C301B2010E944B099B01AC01C50191
:10064000B4010E944B0920E030E040E251E40E94F6
:10065000EE0A0E942A0A5B01C701B6010E942A0A1B
:10066000AB01BC01C501BA010E945B0B362E04C070
:1006700033243A9401C0312C8B819C818D3B924074
:100680000CF4DEC0E981FA81A080B18095018091EF
:100690004601909147018A159B0508F4D4C08091CA
:1006A0004801909149018A159B0580F0EAE4F1E048
:1006B00012E0819191918217930728F01F5F1E30FD
:1006C000C1F71AE568C01F3F11F4BFC011E0812FC8
:1006D00090E0FC01EE0FFF1FEA5BFE4F608071802F
:1006E000880F991FFC01EC5BFE4F80819181B30163
:1006F000681B790B80E090E00E94600A9B01AC01CE
:100700000E944C096B017C01B501BB0C880B990B55
:100710000E94620A4B015C01B30180E090E00E94FC
:10072000600A2B013C01612F70E080E090E00E94A4
:10073000600A20E030E040E05FE30E94EE0A20E043
:1007400030E0A9010E944C09A70196010E94EE0A1F
:100750009B01AC01C301B2010E944B099B01AC019A
:10076000C501B4010E944B0920E030E040E251E4B1
:100770000E94EE0A0E942A0A8B01C701B6010E945C
:100780002A0AAB01BC01C801BA010E945B0B162FFB
:100790006F3F09F455C0FFEF3F1609F44EC02B819F
:1007A0003C81B901330F880B990B0E94620A6B01DF
:1007B0007C01632D70E080E090E00E94600A4B01B4
:1007C0005C01A701960160E070E081E694E40E947C
:1007D0004B099B01AC01C501B4010E94EE0A4B011B
:1007E0005C01612F70E080E090E00E94600A2B01C4
:1007F0003C0120E030E04FE254E4C701B6010E9422
:100800004B099B01AC01C301B2010E94EE0A9B019E
:10081000AC01C501B4010E944C0920E030E048E47D
:1008200053E40E94B80920E030E044E052E40E9422
:100830004C090E94310A862F0AC081E2810F07C04D
:1008400081E2830D04C010E0A6CF1AE5A4CF0F907B
:100850000F900F900F90DF91CF911F910F91FF900C
:10086000EF90DF90CF90BF90AF909F908F907F9050
:100870006F905F904F903F9008951F920F920FB628
:100880000F9211242F933F934F935F936F937F9316
:100890008F939F93AF93BF93EF93FF932091650145
:1008A000309166018091630190916401820F931FE2
:1008B00090936601809365018FEF90E090936401BF
:1008C000809363018FEF87BD809141019091420138
:1008D000A0914301B09144010196A11DB11D8093E7
:1008E000410190934201A0934301B0934401809150
:1008F000450181112DC08091740190917501209165
:100900006501309166018217930710F580910C0103
:100910008430F1F4E0910601F09107010995009708
:10092000B9F00E947100882351F0E0910401F09128
:1009300005010995109266011092650109C00E9497
:10094000E40B9C013327309364012093630187BD3E
:10095000FF91EF91BF91AF919F918F917F916F9197
:100960005F914F913F912F910F900FBE0F901F906D
:10097000189580FF02C0559A01C0559881FF02C0AA
:10098000549A01C0549882FF02C03B9A01C03B9820
:1009900083FF02C03A9A01C03A9884FF02C03D9A90
:1009A00001C03D9885FF02C03C9A08953C98089587
:1009B0004C017B01712C0F2EF3EBAF2EB12CF02DDF
:1009C0000F2EF4EBCF2ED12CF02D66246A94689470
:1009D000332432F822242394CAE7D0E00F2EF8E122
:1009E0004F2EF02D0F2EF9E25F2EF02D00E610E0D5
:1009F000E0910C01F0E0E730F105D0F7EC5CFF4F3F
:100A00000C946F0BF89480B7877F80BF88818F77B5
:100A1000888314B817B81AB815B818B81BB80FB629
:100A2000F894A895409260000FBE50926000F801C3
:100A300080818064808383B7817F846083BFF894E2
:100A400083B7816083BF7894889583B78E7F83BF97
:100A5000789410924501529A5A9A888180688883C6
:100A600087E592E00197F1F700C0000080B7886148
:100A700080BF8FE30E94B904EFE1FEE43197F1F704
:100A800000C0000080914501882361F083E00E944E
:100A9000B904FFEF20E782E0F15020408040E1F709
:100AA00000C0000080E00E94B904A2CF8CE00E9448
:100AB000B904EFECF7E03197F1F700C0000080E0F7
:100AC0000E94B904FFEF21EE84E0F1502040804005
:100AD000E1F700C000008CCF0E9479028B3AE2E07F
:100AE0009E0724F08CE00E94B90482CF8938F2E09E
:100AF0009F0724F080E30E94B9047ACF87369240A2
:100B000024F08FE00E94B90473CF83E00E94B904FF
:100B10006FCF489916C0822D0E94B9048FEC97E0E0
:100B20000197F1F700C0000080E00E94B9049FEF38
:100B3000E1EEF4E09150E040F040E1F700C0000049
:100B400057CF80E00E94B90453CF711003C0F40165
:100B50000995722C30920C01F701099549CF8091CB
:100B60000A01811107C0F5011082F601108210926E
:100B70000B013ECF90910A0180910B01981709F467
:100B800037CF80910A0180930B0180910A01813057
:100B900089F4F5016082F60110828FE295E70197F2
:100BA000F1F700C0000080917B01F5018083F60120
:100BB00010821ECF80910A01823089F4F5011082E3
:100BC000F60160828FE295E70197F1F700C000001F
:100BD00080916701F5011082F601808309CFF5014C
:100BE0001082F6016082F5016082F60160828FE278
:100BF00095E70197F1F700C0000080917A0190918C
:100C00007901F5019083F6018083F2CE1F920F9255
:100C10000FB60F9211248F939F9310928100109220
:100C200085001092840081E080931E018093620110
:100C30001092450110927C0093EA90937A00809381
:100C40007B009F918F910F900FBE0F901F90189572
:100C50001F920F920FB60F9211242F933F934F9331
:100C60005F936F937F938F939F93AF93BF93CF9334
:100C7000DF93EF93FF93209184003091850081E012
:100C80008093450180911E01882331F110928500E7
:100C90001092840081E0809381001092760110927E
:100CA0001E0180916201882309F4CAC1EAE7F0E0DD
:100CB000808186FDFDCF809178009091790090939E
:100CC000400180933F0181E080937C0093EA909300
:100CD0007A0080937B00B4C1C90187589109843799
:100CE0009940A8F010928100109285001092840023
:100CF00081E080931E018093620110924501109261
:100D00007C0093EA90937A0080937B0099C12658E7
:100D10003109A4EFB0E00E94750BAA27BB278830E9
:100D200078F421E030E0F90102C0EE0FFF1F8A9550
:100D3000E2F7CF0190917601892B8093760180C1F3
:100D400081E080931E0180916201882351F1EAE7DE
:100D5000F0E0808186FDFDCF809178009091790050
:100D600090933E0180933D0110927C0083EA809332
:100D70007A0081E080937B0080917601882361F086
:100D800010928100109285001092840081E080937F
:100D900062011092450154C11092620110923C010F
:100DA0004FC180913C01E82FF0E0E859FE4F90914F
:100DB000760190838F5F80933C018C3009F040C1B5
:100DC00010928100109285001092840081E080933F
:100DD000620110924501C0917201D091730188E6C1
:100DE00091E00E943308C817D90709F029C1809102
:100DF0007101882354F0E0910801F09109016DE33D
:100E000071E088E691E009951BC18858833030F085
:100E1000539823981092B4001092B30080917101FE
:100E200090E0FC01E058F109EB30F10508F008C151
:100E3000E55CFF4F0C946F0BEEE6F0E080818D7F58
:100E4000808316BCE0E0F0E70995E0E0F0E009956A
:100E500010920C01F5C081E080930C01F1C085E097
:100E600080930C01EDC082E080930C01E9C0809179
:100E70000C01833009F4E4C080910C01843009F442
:100E8000DFC0539A239A1092B4001092B30083E00B
:100E900080930C01D5C080916801823009F44BC069
:100EA00028F4882351F08130D9F18CC0833009F4C3
:100EB00057C0843009F468C085C080910C01863029
:100EC00009F0BEC06091770180EB90E00E94FC0BBE
:100ED0006091780181EB90E00E94FC0B60917B01B6
:100EE00085E090E00E94FC0B6091670189E090E052
:100EF0000E94FC0B609179018CE090E00E94FC0B59
:100F000060917A0184E190E00E94FC0B5398239851
:100F10001092B4001092B30081E080930C0152C093
:100F20008091690190916A01909378018093770193
:100F300010920A014BC080910A01813039F49091DE
:100F40006B0180917B01981709F440C010920B014E
:100F500081E080930A0180916B0180937B0136C010
:100F600080910A01823031F490916C018091670187
:100F7000981761F110920B0182E080930A01809131
:100F80006C018093670122C080910A01833061F473
:100F900090916E0180917A01981306C090916D0135
:100FA00080917901981791F010920B0183E0809362
:100FB0000A01E8E6F1E085818093790186818093DA
:100FC0007A0104C0809168018823D1F180910C01DD
:100FD0008630B1F1539A239A1092B4001092B30064
:100FE00086E080930C012CC080910C01863081F04A
:100FF000539A239A1092B4001092B30080E00E949A
:10100000B90410920A0110920B0186E080930C0142
:1010100081E090E09C010090680102C0220F331F24
:101020000A94E2F7809177019091780182239323CB
:10103000892B21F081E080930A0102C010920A01FD
:10104000FF91EF91DF91CF91BF91AF919F918F91E0
:101050007F916F915F914F913F912F910F900FBEB4
:101060000F901F901895FC01AC01465F5F4F8FEF0A
:101070009FEF21918227082E8295807F8025092E5F
:10108000982F82958F700826869598278927880F34
:10109000880F880F8025E417F50759F7089588E829
:1010A00091E0089581E090E090931D0180931C01F0
:1010B0000895CF93DF93C8E8D1E019868091770136
:1010C0008883CE010E9433089B878A87DF91CF9166
:1010D0000895CF93DF93EC019CE0FE01ACE7B1E013
:1010E00001900D929A95E1F7888180931901CB01C7
:1010F0000E94940290E090931801809317018B3422
:10110000910534F481E090E090931B0180931A01E3
:10111000DF91CF91089520910D0130910E01281794
:10112000390759F190930E0180930D01009729F42E
:1011300060E080E00E94010208958130910549F449
:101140000E94060260917A01809179010E94010259
:1011500008958230910541F40E94060260E080917A
:101160007B010E9401020895039739F40E94060250
:101170006091670180E00E94010208954091410161
:10118000509142016091430170914401809113019B
:1011900090911401A0911501B09116018096A11DA6
:1011A000B11D84179507A607B70708F056C08091B0
:1011B000410190914201A0914301B091440180937B
:1011C000130190931401A0931501B093160180911F
:1011D0001A0190911B010197C9F510921B01109201
:1011E0001A010E94100290E0909312018093110165
:1011F000837090789093100180930F018230910555
:1012000040F481E090E00E948B0881E00E94B904E4
:1012100008958230910541F482E090E00E948B08AD
:1012200080E10E94B9040895039741F483E090E0BF
:101230000E948B0884E10E94B904089580E090E048
:101240000E948B0880E00E94B904089580E090E03D
:101250000E948B0884E00E94B90408950E94F9005E
:101260008FE498E0909307018093060182E598E06F
:10127000909305018093040189E698E09093090119
:10128000809308016EEB78E089E598E00E94D8042D
:1012900080E090E008955058BB27AA270E94630978
:1012A0000C94B40A0E94A60A38F00E94AD0A20F0FD
:1012B00039F49F3F19F426F40C94A30A0EF4E09538
:1012C000E7FB0C949D0AE92F0E94C50A58F3BA1750
:1012D000620773078407950720F079F4A6F50C944C
:1012E000E70A0EF4E0950B2EBA2FA02D0B01B901E1
:1012F00090010C01CA01A0011124FF27591B99F08C
:10130000593F50F4503E68F11A16F040A22F232F97
:10131000342F4427585FF3CF469537952795A795E7
:10132000F0405395C9F77EF41F16BA0B620B730B8E
:10133000840BBAF09150A1F0FF0FBB1F661F771FFF
:10134000881FC2F70EC0BA0F621F731F841F48F4B4
:10135000879577956795B795F7959E3F08F0B0CF3D
:101360009395880F08F09927EE0F97958795089524
:101370000E94CC090C94B40A0E94AD0A58F00E9455
:10138000A60A40F029F45F3F29F00C949D0A511100
:101390000C94E80A0C94A30A0E94C50A68F39923E6
:1013A000B1F3552391F3951B550BBB27AA27621761
:1013B0007307840738F09F5F5F4F220F331F441F6E
:1013C000AA1FA9F335D00E2E3AF0E0E832D09150A2
:1013D0005040E695001CCAF72BD0FE2F29D0660F8F
:1013E000771F881FBB1F261737074807AB07B0E8D2
:1013F00009F0BB0B802DBF01FF2793585F4F3AF0D8
:101400009E3F510578F00C949D0A0C94E80A5F3FCA
:10141000E4F3983ED4F3869577956795B795F7955D
:101420009F5FC9F7880F911D9695879597F9089545
:10143000E1E0660F771F881FBB1F621773078407E1
:10144000BA0720F0621B730B840BBA0BEE1F88F7F0
:10145000E09508950E94310A6894B1110C94E80A4D
:1014600008950E94CD0A88F09F5798F0B92F9927C8
:10147000B751B0F0E1F0660F771F881F991F1AF07F
:10148000BA95C9F714C0B13091F00E94E70AB1E0F3
:1014900008950C94E70A672F782F8827B85F39F0F2
:1014A000B93FCCF3869577956795B395D9F73EF418
:1014B00090958095709561957F4F8F4F9F4F0895C0
:1014C000E89409C097FB3EF49095809570956195DE
:1014D0007F4F8F4F9F4F9923A9F0F92F96E9BB2794
:1014E0009395F695879577956795B795F111F8CF10
:1014F000FAF4BB0F11F460FF1BC06F5F7F4F8F4F7B
:101500009F4F16C0882311F096E911C0772321F070
:101510009EE8872F762F05C0662371F096E8862F08
:1015200070E060E02AF09A95660F771F881FDAF75F
:10153000880F9695879597F9089597F99F6780E8A2
:1015400070E060E008959FEF80EC089500240A9415
:101550001616170618060906089500240A9412168E
:101560001306140605060895092E0394000C11F4C1
:10157000882352F0BB0F40F4BF2B11F460FF04C06E
:101580006F5F7F4F8F4F9F4F089557FD9058440FC7
:10159000551F59F05F3F71F04795880F97FB991FD2
:1015A00061F09F3F79F0879508951216130614068F
:1015B000551FF2CF4695F1DF08C01616170618061C
:1015C000991FF1CF86957105610508940895E894F7
:1015D000BB2766277727CB0197F908950E94010B57
:1015E0000C94B40A0E94A60A38F00E94AD0A20F0BA
:1015F000952311F00C949D0A0C94A30A11240C94C9
:10160000E80A0E94C50A70F3959FC1F3950F50E058
:10161000551F629FF001729FBB27F00DB11D639FA4
:10162000AA27F00DB11DAA1F649F6627B00DA11D4A
:10163000661F829F2227B00DA11D621F739FB00DF0
:10164000A11D621F839FA00D611D221F749F332760
:10165000A00D611D231F849F600D211D822F762FF9
:101660006A2F11249F5750409AF0F1F088234AF0D6
:10167000EE0FFF1FBB1F661F771F881F9150504042
:10168000A9F79E3F510580F00C949D0A0C94E80A3E
:101690005F3FE4F3983ED4F3869577956795B795C9
:1016A000F795E7959F5FC1F7FE2B880F911D9695E3
:1016B000879597F9089597FB072E16F4009407D0A5
:1016C00077FD09D00E94840B07FC05D03EF490956D
:1016D00081959F4F0895709561957F4F0895EE0F06
:1016E000FF1F0590F491E02D0994A29FB001B39FD4
:1016F000C001A39F700D811D1124911DB29F700D1B
:10170000811D1124911D0895AA1BBB1B51E107C027
:10171000AA1FBB1FA617B70710F0A61BB70B881F81
:10172000991F5A95A9F780959095BC01CD01089510
:101730008F929F92AF92BF92CF92DF92EF92FF92E1
:10174000CF93DF93EC01688179818A819B81611558
:1017500071058105910521F464E279ED8BE597E04F
:101760002DE133EF41E050E00E940A0C49015A019B
:101770009B01AC01A7EAB1E40E94290C6B017C013A
:10178000ACEEB4EFA50194010E94370CDC01CB0153
:101790008C0D9D1DAE1DBF1DB7FF03C00197A10994
:1017A000B04888839983AA83BB839F77DF91CF91C9
:1017B000FF90EF90DF90CF90BF90AF909F908F9071
:1017C00008950E94980B089580E091E00E94980B84
:1017D0000895A0E0B0E08093000190930101A093F0
:1017E0000201B09303010895F999FECF92BD81BD26
:1017F000F89A992780B50895262FF999FECF1FBA38
:1018000092BD81BD20BD0FB6F894FA9AF99A0FBE29
:1018100001960895052E97FB1EF400940E94210C5A
:1018200057FD07D00E943C0C07FC03D04EF40C94EB
:10183000210C50954095309521953F4F4F4F5F4F6C
:10184000089590958095709561957F4F8F4F9F4F2C
:1018500008950E94750BA59F900DB49F900DA49FB5
:10186000800D911D11240895B7FF0C94290C0E943E
:10187000290C821B930B0895A1E21A2EAA1BBB1BF5
:10188000FD010DC0AA1FBB1FEE1FFF1FA217B3074C
:10189000E407F50720F0A21BB30BE40BF50B661F62
:1018A000771F881F991F1A9469F760957095809526
:1018B00090959B01AC01BD01CF010895F894FFCF35
:0A18C00001000000F800F500F4003C
:00000001FF
