S01800004761746865725F325F477275707572692E73726563D3
S11300000C9446000C946F000C946F000C946F00D9
S11300100C946F000C946F000C94DF010C946F002F
S11300200C946F000C946F000C946F000C949D055D
S11300300C946F000C946F000C94D4030C946F0018
S11300400C946F000C946F000C946F000C946F0070
S11300500C946F000C946F000C946F000C94BF050B
S11300600C946F000C946F009904ED0403053C0597
S1130070430520054605B306B707B707BC06BF0608
S1130080C206C606CA06CE068B07E20611241FBEA8
S1130090CFEFD8E0DEBFCDBF14BE0FB6F894A8955D
S11300A080916000886180936000109260000FBEB0
S11300B011E0A0E0B1E0E0E4FBE102C005900D92A4
S11300C0A232B107D9F721E0A2E2B1E001C01D924A
S11300D0AD3AB207E1F70E94520A0C949E0D0C94BB
S11300E000000FB6F894A4B1209154012A2B24B92E
S11300F021E030915401203029F0000025B1232B58
S113010025B904C000000000000000C00000000089
S11301100000309525B1232325B92EEA2A95F1F75D
S11301202BEE30B735FF0AC0A4B930915401309595
S113013025B1232325B90FBE80E0089500002A9538
S113014081F721E030915401203029F0000025B1DD
S1130150232B25B904C000000000000000C00000EB
S113016000000000309525B1232325B9000024E5C3
S11301702A95F1F7FC018CE0619170E0660F771F1E
S1130180616072609AE041E050E09A0126233723CF
S1130190232B30915401203029F0000025B1232B6A
S11301A025B904C000000000000000C000000000E9
S11301B00000309525B1232325B9000021E52A95B7
S11301C0F1F7440F551F9A9501F78A95A9F620B7C0
S11301D0206120BFA4B930915401309525B1232367
S11301E025B90FBE81E00895089580E090E0089558
S11301F00895DF92EF92FF920F931F93CF93DF93B3
S1130200F89414B817B81AB815B818B81BB8529A95
S11302105A9A14BC85E085BD8FEF87BD82E0809338
S11302206E0010928000109281002FE83BE0309322
S113023089002093880080936F005398239891EA53
S11302409093B0008093B1001092B4001092B30068
S11302508BE080BF83E080937F0086E080937C0006
S1130260EAE7F0E083E88083808180648083808192
S113027086FDFDCF10927C0083EA80937A0081E0B2
S113028080937B0081E090E00E94340D8F3F11F059
S11302908093660010925E0181E080933701809321
S11302A07B011092550110928F0180E990E00E9429
S11302B0340D8093540180915401887319F081E0C6
S11302C08093540110927F0110927E018FEF90E091
S11302D090937D0180937C0110925A0110925B01EE
S11302E010925C0110925D0181E08093240182E40C
S11302F09FE090938E0180938D0180EB90E00E94AB
S1130300340DC82F81EB90E00E94340D2C2F30E087
S1130310382B309391012093900185E090E00E9466
S1130320340D8093940189E090E00E94340D809311
S113033080018CE090E00E94340D8093920184E16E
S113034090E00E94340D809393010F2EFFE5EF2E71
S1130350F1E0FF2EF02D08E311E0C0E2D0E0CE0181
S11303600E94340DD82ECE0101960E94340D2D2DFD
S113037030E0322F2227282BF701219331937F017C
S1130380CE01C0960E94340DD82ECE01C1960E9493
S1130390340D2D2D30E0322F2227282BF801219304
S11303A031938F012296CC33D105C9F67894DF912D
S11303B0CF911F910F91FF90EF90DF9008951F92BE
S11303C00F920FB60F9211248F930FB6F894A8953D
S11303D080916000886180936000109260000FBE7D
S11303E08F910F900FBE0F901F901895009741F0BA
S11303F0EFECF7E03197F1F700C000000197C1F787
S113040008958093B3006093B40008958FEF8093B0
S1130410B3008093B4008FE090E00E94F601089549
S113042080915E01811114C0F89486E080937C0071
S1130430EAE7F0E083E880838081806480838081C0
S113044086FDFDCF8091780090917900789408958D
S11304508FEF9FEF08953F924F925F926F927F923A
S11304608F929F92AF92BF92CF92DF92EF92FF92C0
S11304700F931F93CF93DF9300D000D0CDB7DEB797
S11304809A838983FC010280F381E02DFC83EB8352
S1130490E43823E0F2070CF082C09F018091380118
S11304A0909139018E179F0708F47CC080913A011E
S11304B090913B018E179F0768F0ECE3F1E012E0A6
S11304C0819191918217930730F01F5F1E30C1F71D
S11304D01DE001C011E0812F90E0FC01EE0FFF1F31
S11304E0E85CFE4F60807180880F991FFC01EA5C14
S11304F0FE4F80819181B301681B790B80E090E00D
S11305000E94A00B9B01AC010E948C0A6B017C0130
S11305104B815C81BA01550F880B990B0E94A20B89
S11305204B015C01B30180E090E00E94A00B2B0121
S11305303C01612F70E080E090E00E94A00B20E07D
S113054030E040E05FE30E942E0C20E030E0A9019F
S11305500E948C0AA70196010E942E0C9B01AC01FB
S1130560C301B2010E948B0A9B01AC01C501B40115
S11305700E948B0A20E030E040E251E40E942E0CFD
S11305800E946A0B5B01C701B6010E946A0BAB01B2
S1130590BC01C501BA010E949B0C362E04C0332451
S11305A03A9401C0312C8B819C818D3B92400CF498
S11305B0DEC0E981FA81A080B180950180915F015C
S11305C0909160018A159B0508F4D4C08091610163
S11305D0909162018A159B0580F0E3E6F1E012E058
S11305E0819191918217930728F01F5F1E30C1F704
S11305F01AE568C01F3F11F4BFC011E0812F90E0DD
S1130600FC01EE0FFF1FE15AFE4F60807180880FDE
S1130610991FFC01E35AFE4F80819181B301681B4D
S1130620790B80E090E00E94A00B9B01AC010E943A
S11306308C0A6B017C01B501BB0C880B990B0E94E1
S1130640A20B4B015C01B30180E090E00E94A00B7F
S11306502B013C01612F70E080E090E00E94A00B30
S113066020E030E040E05FE30E942E0C20E030E028
S1130670A9010E948C0AA70196010E942E0C9B01DD
S1130680AC01C301B2010E948B0A9B01AC01C501FC
S1130690B4010E948B0A20E030E040E251E40E9461
S11306A02E0C0E946A0B8B01C701B6010E946A0BD3
S11306B0AB01BC01C801BA010E949B0C162F6F3F0D
S11306C009F455C0FFEF3F1609F44EC02B813C815D
S11306D0B901330F880B990B0E94A20B6B017C01AB
S11306E0632D70E080E090E00E94A00B4B015C0160
S11306F0A701960160E070E081E694E40E948B0A11
S11307009B01AC01C501B4010E942E0C4B015C019C
S1130710612F70E080E090E00E94A00B2B013C016F
S113072020E030E04FE254E4C701B6010E948B0A96
S11307309B01AC01C301B2010E942E0C9B01AC01D0
S1130740C501B4010E948C0A20E030E048E453E47F
S11307500E94F80A20E030E044E052E40E948C0A4F
S11307600E94710B862F0AC081E2810F07C081E2CB
S1130770830D04C010E0A6CF1AE5A4CF0F900F900C
S11307800F900F90DF91CF911F910F91FF90EF90F9
S1130790DF90CF90BF90AF909F908F907F906F909D
S11307A05F904F903F9008951F920F920FB60F9253
S11307B011242F933F934F935F936F937F938F9362
S11307C09F93AF93BF93EF93FF9320917E0130915A
S11307D07F0180917C0190917D01820F931F909302
S11307E07F0180937E018FEF90E090937D01809351
S11307F07C018FEF87BD80915A0190915B01A0919C
S11308005C01B0915D010196A11DB11D80935A0157
S113081090935B01A0935C01B0935D0180915E01B4
S113082081112DC080918D0190918E0120917E01C6
S113083030917F018217930710F580912401843051
S1130840F1F4E0910601F091070109950097B9F0E0
S11308500E947100882351F0E0910401F091050198
S1130860099510927F0110927E0109C00E94240D07
S11308709C01332730937D0120937C0187BDFF9138
S1130880EF91BF91AF919F918F917F916F915F9104
S11308904F913F912F910F900FBE0F901F9018957D
S11308A080FF02C0559A01C0559881FF02C0549A36
S11308B001C0549882FF02C03B9A01C03B9883FF59
S11308C002C03A9A01C03A9884FF02C03D9A01C01E
S11308D03D9885FF02C03C9A08953C9808954C01C8
S11308E07B01712C0F2EF3EBAF2EB12CF02D0F2EBC
S11308F0F4EBCF2ED12CF02D66246A946894332423
S113090032F822242394CAE7D0E00F2EF8E14F2EC8
S1130910F02D0F2EF9E25F2EF02D00E610E0E091AD
S11309202401F0E0E730F105D0F7EC5CFF4F0C94C4
S1130930AF0CF89480B7877F80BF88818F778883D6
S113094014B817B81AB815B818B81BB80FB6F89475
S1130950A895409260000FBE50926000F80180811B
S11309608064808383B7817F846083BFF89483B776
S1130970816083BF7894889583B78E7F83BF789492
S113098010925E01529A5A9A88818068888387E51A
S113099092E00197F1F700C0000080B7886180BF42
S11309A08FE30E945004EFE1FEE43197F1F700C0B9
S11309B0000080915E01882361F083E00E9450046E
S11309C0FFEF20E782E0F15020408040E1F700C0D3
S11309D0000080E00E945004A2CF8CE00E945004EA
S11309E0EFECF7E03197F1F700C0000080E00E94DF
S11309F05004FFEF21EE84E0F15020408040E1F705
S1130A0000C000008CCF0E9410028B3AE2E09E07E7
S1130A1024F08CE00E94500482CF8938F2E09F07D2
S1130A2024F080E30E9450047ACF8736924024F069
S1130A308FE00E94500473CF83E00E9450046FCF74
S1130A40489916C0822D0E9450048FEC97E00197BC
S1130A50F1F700C0000080E00E9450049FEFE1EE37
S1130A60F4E09150E040F040E1F700C0000057CFBF
S1130A7080E00E94500453CF711003C0F401099523
S1130A80722C30922401F701099549CF80912201FB
S1130A90811107C0F5011082F60110821092230122
S1130AA03ECF9091220180912301981709F437CF0A
S1130AB0809122018093230180912201813089F465
S1130AC0F5016082F60110828FE295E70197F1F754
S1130AD000C0000080919401F5018083F60110822A
S1130AE01ECF80912201823089F4F5011082F60133
S1130AF060828FE295E70197F1F700C000008091D2
S1130B008001F5011082F601808309CFF50110827E
S1130B10F6016082F5016082F60160828FE295E75A
S1130B200197F1F700C00000809193019091920128
S1130B30F5019083F6018083F2CE1F920F920FB6D7
S1130B400F9211248F939F9310928100109285002D
S1130B501092840081E08093370180937B0110928E
S1130B605E0110927C0093EA90937A0080937B005C
S1130B709F918F910F900FBE0F901F9018951F9209
S1130B800F920FB60F9211242F933F934F935F93BD
S1130B906F937F938F939F93AF93BF93CF93DF9381
S1130BA0EF93FF93209184003091850081E080933E
S1130BB05E0180913701882331F1109285001092F3
S1130BC0840081E08093810010928F01109237019C
S1130BD080917B01882309F4CAC1EAE7F0E08081AF
S1130BE086FDFDCF80917800909179009093590112
S1130BF08093580181E080937C0093EA90937A007B
S1130C0080937B00B4C1C901875891098437994006
S1130C10A8F010928100109285001092840081E067
S1130C208093370180937B0110925E0110927C00C7
S1130C3093EA90937A0080937B0099C126583109F6
S1130C40A4EFB0E00E94B50CAA27BB27883078F443
S1130C5021E030E0F90102C0EE0FFF1F8A95E2F7B0
S1130C60CF0190918F01892B80938F0180C181E006
S1130C708093370180917B01882351F1EAE7F0E00A
S1130C80808186FDFDCF80917800909179009093CA
S1130C9057018093560110927C0083EA80937A0076
S1130CA081E080937B0080918F01882361F0109212
S1130CB08100109285001092840081E080937B0172
S1130CC010925E0154C110927B01109255014FC1E4
S1130CD080915501E82FF0E0EF57FE4F90918F017E
S1130CE090838F5F809355018C3009F040C110923E
S1130CF08100109285001092840081E080937B0132
S1130D0010925E01C0918B01D0918C0181E891E039
S1130D100E94CA07C817D90709F029C180918A011E
S1130D20882354F0E0910801F091090166E571E02F
S1130D3081E891E009951BC18858833030F05398BD
S1130D4023981092B4001092B30080918A0190E02D
S1130D50FC01E058F109EB30F10508F008C1E55C4D
S1130D60FF4F0C94AF0CEEE6F0E080818D7F808322
S1130D7016BCE0E0F0E70995E0E0F0E00995109298
S1130D802401F5C081E080932401F1C085E08093C3
S1130D902401EDC082E080932401E9C08091240104
S1130DA0833009F4E4C080912401843009F4DFC065
S1130DB0539A239A1092B4001092B30083E0809364
S1130DC02401D5C080918101823009F44BC028F4FC
S1130DD0882351F08130D9F18CC0833009F457C095
S1130DE0843009F468C085C080912401863009F0FC
S1130DF0BEC06091900180EB90E00E943C0D609138
S1130E00910181EB90E00E943C0D6091940185E09A
S1130E1090E00E943C0D6091800189E090E00E9486
S1130E203C0D609192018CE090E00E943C0D609139
S1130E30930184E190E00E943C0D53982398109212
S1130E40B4001092B30081E08093240152C08091D9
S1130E50820190918301909391018093900110926B
S1130E6022014BC080912201813039F49091840198
S1130E7080919401981709F440C01092230181E0F5
S1130E8080932201809184018093940136C08091E3
S1130E902201823031F4909185018091800198176C
S1130EA061F11092230182E08093220180918501F7
S1130EB08093800122C080912201833061F490915B
S1130EC0870180919301981306C0909186018091C7
S1130ED09201981791F01092230183E080932201EC
S1130EE0E1E8F1E08581809392018681809393010A
S1130EF004C0809181018823D1F18091240186303E
S1130F00B1F1539A239A1092B4001092B30086E080
S1130F10809324012CC080912401863081F0539A5F
S1130F20239A1092B4001092B30080E00E945004FF
S1130F30109222011092230186E08093240181E023
S1130F4090E09C010090810102C0220F331F0A949B
S1130F50E2F7809190019091910182239323892B50
S1130F6021F081E08093220102C010922201FF91BE
S1130F70EF91DF91CF91BF91AF919F918F917F912D
S1130F806F915F914F913F912F910F900FBE0F90F2
S1130F901F901895FC01AC01465F5F4F8FEF9FEFE8
S1130FA021918227082E8295807F8025092E982FF3
S1130FB082958F700826869598278927880F880F31
S1130FC0880F8025E417F50759F7089581EA91E021
S1130FD0089581E090E0909326018093250108957F
S1130FE008958091250190912601019771F4109242
S1130FF026011092250181E00E94500484E690E0CD
S11310000E94F60180E00E9450040895CF93DF937C
S1131010EC019CE0FE01A5E9B1E001900D929A95E6
S1131020E1F7888180933201CB010E942B0290E08A
S1131030909331018093300181E090E090933601E8
S1131040809335019093340180933301DF91CF91E4
S11310500895CF93DF93C1EAD1E0198681E08883B4
S1131060CE010E94CA079B878A87DF91CF9108959A
S113107020912D0130912E012817390759F19093B1
S11310802E0180932D01009729F460E080E00E94F6
S1131090010208958130910549F40E94060260918D
S11310A09301809192010E9401020895823091057A
S11310B041F40E94060260E0809194010E940102C2
S11310C00895039739F40E9406026091800180E03C
S11310D00E940102089581E090E00E94380808957A
S11310E080911401909115018130910591F58091C1
S11310F0120190911301892B61F010921301109247
S1131100120181E090E00E94380881E00E945004BE
S1131110BAC0209130013091310180911E0190912B
S11311201F01821793070CF0AEC080E090E00E948C
S1131130380880E10E94500482E090E09093150109
S11311408093140181E090E0909313018093120145
S11311509AC0029709F097C08091120190911301EF
S1131160892B09F443C0809130019091310190930F
S11311701D0180931C0180911601909117010E941A
S1131180380881E10E94500481E090E090932801A6
S11311908093270120E030E84BEB54E460910A018E
S11311A070910B0180910C0190910D010E942E0C05
S11311B00E94710BCB010E94F60180E090E0A0E850
S11311C0BFE380930A0190930B01A0930C01B093A9
S11311D00D0181E090E00E94380880ED97E00E94C4
S11311E0F60110921301109212014DC020913001AA
S11311F03091310180911C0190911D01281739070C
S1131200A4F180E090E00E94380885E00E94500438
S113121080911601909117018330910539F482E091
S113122090E0909317018093160108C0029731F45F
S113123083E090E0909317018093160180E090E0A2
S1131240A0E4B0E480930A0190930B01A0930C01F5
S1131250B0930D0181E090E090931301809312010B
S113126010922801109227010EC0109228011092AA
S1131270270181E090E090931501809314019093ED
S11312801301809312018091300190913101909368
S11312901F0180931E010895CF93DF938091100165
S11312A090911101892B91F080919001909191017D
S11312B0039731F481E290E090932101809320011F
S11312C00E946B0810921101109210018091350157
S11312D0909136010197E9F5209130013091310167
S11312E080912001909121018217930724F180912C
S11312F0320181508230F8F480E090E00E94380896
S113130085E10E94500480910E0190910F01892B78
S1131310E1F0C1EAD1E0198682E08883CE010E941F
S1131320CA079B878A8710920F0110920E0181E0F1
S113133080932F010AC080913201813031F4809171
S11313402F01811102C00E94700810923601109280
S1131350350140915A0150915B0160915C0170919B
S11313605D018091290190912A01A0912B01B091F6
S11313702C01805A9F4FAF4FBF4F84179507A60784
S1131380B70708F08CC080915A0190915B01A0913D
S11313905C01B0915D018093290190932A01A0938F
S11313A02B01B0932C018091330190913401892B4E
S11313B029F0109234011092330171C080912701F9
S11313C0909128010197E9F58091160190911701F8
S11313D08330910539F482E090E090931701809373
S11313E0160108C0029731F483E090E0909317014E
S11313F08093160188EE93E090931F0180931E0161
S113140081E090E090931301809312019093150171
S11314108093140180911601909117010E9438085D
S113142080E797E10E94F60181E090E00E9438088D
S113143080EA9FE00E94F601109228011092270191
S11314402EC0C1EAD1E019861882CE010E94CA07D3
S11314509B878A8783E090E090931701809316011D
S113146010922F0181E090E0909315018093140174
S1131470909313018093120188EE93E090931F01DF
S113148080931E0190931B0180931A01909319017C
S1131490809318010E946B0884E10E945004DF913C
S11314A0CF9108950E94F90080919001909191014B
S11314B08330910511F0099799F486EE97E09093A3
S11314C007018093060189EE97E0909305018093CC
S11314D0040161EF77E089E298E00E946F0418C08C
S11314E086E098E0909309018093080186EE97E0E6
S11314F0909307018093060189EE97E0909305018C
S1131500809304016CE479E080EF97E00E946F041B
S113151080E090E008955058BB27AA270E94A30AB0
S11315200C94F40B0E94E60B38F00E94ED0B20F0B3
S113153039F49F3F19F426F40C94E30B0EF4E09570
S1131540E7FB0C94DD0BE92F0E94050C58F3BA1746
S1131550620773078407950720F079F4A6F50C94C5
S1131560270C0EF4E0950B2EBA2FA02D0B01B90118
S113157090010C01CA01A0011124FF27591B99F005
S1131580593F50F4503E68F11A16F040A22F232F11
S1131590342F4427585FF3CF469537952795A79561
S11315A0F0405395C9F77EF41F16BA0B620B730B08
S11315B0840BBAF09150A1F0FF0FBB1F661F771F79
S11315C0881FC2F70EC0BA0F621F731F841F48F42E
S11315D0879577956795B795F7959E3F08F0B0CFB7
S11315E09395880F08F09927EE0F9795879508959E
S11315F00E940C0B0C94F40B0E94ED0B58F00E940B
S1131600E60B40F029F45F3F29F00C94DD0B5111F7
S11316100C94280C0C94E30B0E94050C68F399239A
S1131620B1F3552391F3951B550BBB27AA276217DA
S11316307307840738F09F5F5F4F220F331F441FE7
S1131640AA1FA9F335D00E2E3AF0E0E832D091501B
S11316505040E695001CCAF72BD0FE2F29D0660F08
S1131660771F881FBB1F261737074807AB07B0E84B
S113167009F0BB0B802DBF01FF2793585F4F3AF051
S11316809E3F510578F00C94DD0B0C94280C5F3FC1
S1131690E4F3983ED4F3869577956795B795F795D7
S11316A09F5FC9F7880F911D9695879597F90895BF
S11316B0E1E0660F771F881FBB1F6217730784075B
S11316C0BA0720F0621B730B840BBA0BEE1F88F76A
S11316D0E09508950E94710B6894B1110C94280C44
S11316E008950E940D0C88F09F5798F0B92F992700
S11316F0B751B0F0E1F0660F771F881F991F1AF0F9
S1131700BA95C9F714C0B13091F00E94270CB1E02A
S113171008950C94270C672F782F8827B85F39F029
S1131720B93FCCF3869577956795B395D9F73EF491
S113173090958095709561957F4F8F4F9F4F089539
S1131740E89409C097FB3EF4909580957095619557
S11317507F4F8F4F9F4F9923A9F0F92F96E9BB270D
S11317609395F695879577956795B795F111F8CF89
S1131770FAF4BB0F11F460FF1BC06F5F7F4F8F4FF4
S11317809F4F16C0882311F096E911C0772321F0EA
S11317909EE8872F762F05C0662371F096E8862F82
S11317A070E060E02AF09A95660F771F881FDAF7D9
S11317B0880F9695879597F9089597F99F6780E81C
S11317C070E060E008959FEF80EC089500240A948F
S11317D01616170618060906089500240A94121608
S11317E01306140605060895092E0394000C11F43B
S11317F0882352F0BB0F40F4BF2B11F460FF04C0E8
S11318006F5F7F4F8F4F9F4F089557FD9058440F40
S1131810551F59F05F3F71F04795880F97FB991F4B
S113182061F09F3F79F08795089512161306140608
S1131830551FF2CF4695F1DF08C016161706180695
S1131840991FF1CF86957105610508940895E89470
S1131850BB2766277727CB0197F908950E94410C8F
S11318600C94F40B0E94E60B38F00E94ED0B20F070
S1131870952311F00C94DD0B0C94E30B11240C94C0
S1131880280C0E94050C70F3959FC1F3950F50E04E
S1131890551F629FF001729FBB27F00DB11D639F1E
S11318A0AA27F00DB11DAA1F649F6627B00DA11DC4
S11318B0661F829F2227B00DA11D621F739FB00D6A
S11318C0A11D621F839FA00D611D221F749F3327DA
S11318D0A00D611D231F849F600D211D822F762F73
S11318E06A2F11249F5750409AF0F1F088234AF050
S11318F0EE0FFF1FBB1F661F771F881F91505040BC
S1131900A9F79E3F510580F00C94DD0B0C94280C34
S11319105F3FE4F3983ED4F3869577956795B79542
S1131920F795E7959F5FC1F7FE2B880F911D96955C
S1131930879597F9089597FB072E16F4009407D01E
S113194077FD09D00E94C40C07FC05D03EF49095A5
S113195081959F4F0895709561957F4F0895EE0F7F
S1131960FF1F0590F491E02D0994A29FB001B39F4D
S1131970C001A39F700D811D1124911DB29F700D94
S1131980811D1124911D0895AA1BBB1B51E107C0A1
S1131990AA1FBB1FA617B70710F0A61BB70B881FFB
S11319A0991F5A95A9F780959095BC01CD0108958A
S11319B08F929F92AF92BF92CF92DF92EF92FF925B
S11319C0CF93DF93EC01688179818A819B816115D2
S11319D071058105910521F464E279ED8BE597E0C9
S11319E02DE133EF41E050E00E944A0D49015A01D4
S11319F09B01AC01A7EAB1E40E94690D6B017C0173
S1131A00ACEEB4EFA50194010E94770DDC01CB018B
S1131A108C0D9D1DAE1DBF1DB7FF03C00197A1090D
S1131A20B04888839983AA83BB839F77DF91CF9142
S1131A30FF90EF90DF90CF90BF90AF909F908F90EA
S1131A4008950E94D80C089580E091E00E94D80C7B
S1131A500895A0E0B0E08093000190930101A09369
S1131A600201B09303010895F999FECF92BD81BD9F
S1131A70F89A992780B50895262FF999FECF1FBAB1
S1131A8092BD81BD20BD0FB6F894FA9AF99A0FBEA3
S1131A9001960895052E97FB1EF400940E94610D93
S1131AA057FD07D00E947C0D07FC03D04EF40C9424
S1131AB0610D50954095309521953F4F4F4F5F4FA5
S1131AC0089590958095709561957F4F8F4F9F4FA6
S1131AD008950E94B50CA59F900DB49F900DA49FEE
S1131AE0800D911D11240895B7FF0C94690D0E9477
S1131AF0690D821B930B0895A1E21A2EAA1BBB1B2E
S1131B00FD010DC0AA1FBB1FEE1FFF1FA217B307C5
S1131B10E407F50720F0A21BB30BE40BF50B661FDB
S1131B20771F881F991F1A9469F76095709580959F
S1131B3090959B01AC01BD01CF010895F894FFCFAE
S1131B4001000000F800F500F4000000803F0100EF
S1131B500100010001000300E803E803E803E803CF
S1051B6021005E
S9030000FC
