S00D00004F726269742E7372656317
S11300000C9446000C946F000C946F000C946F00D9
S11300100C946F000C946F000C94DF010C946F002F
S11300200C946F000C946F000C946F000C949D055D
S11300300C946F000C946F000C94D4030C946F0018
S11300400C946F000C946F000C946F000C946F0070
S11300500C946F000C946F000C946F000C94BF050B
S11300600C946F000C946F009904ED0403053C0597
S1130070430520054605B306B707B707BC06BF0608
S1130080C206C606CA06CE068B07E20611241FBEA8
S1130090CFEFD8E0DEBFCDBF14BE0FB6F894A8955D
S11300A080916000886180936000109260000FBEB0
S11300B011E0A0E0B1E0EAEFF7E102C005900D9293
S11300C0AA30B107D9F721E0AAE0B1E001C01D923E
S11300D0A039B207E1F70E94BA080C94FB0B0C9408
S11300E000000FB6F894A4B1209133012A2B24B94F
S11300F021E030913301203029F0000025B1232B79
S113010025B904C000000000000000C00000000089
S11301100000309525B1232325B92EEA2A95F1F75D
S11301202BEE30B735FF0AC0A4B9309133013095B6
S113013025B1232325B90FBE80E0089500002A9538
S113014081F721E030913301203029F0000025B1FE
S1130150232B25B904C000000000000000C00000EB
S113016000000000309525B1232325B9000024E5C3
S11301702A95F1F7FC018CE0619170E0660F771F1E
S1130180616072609AE041E050E09A0126233723CF
S1130190232B30913301203029F0000025B1232B8B
S11301A025B904C000000000000000C000000000E9
S11301B00000309525B1232325B9000021E52A95B7
S11301C0F1F7440F551F9A9501F78A95A9F620B7C0
S11301D0206120BFA4B930913301309525B1232388
S11301E025B90FBE81E00895089580E090E0089558
S11301F00895DF92EF92FF920F931F93CF93DF93B3
S1130200F89414B817B81AB815B818B81BB8529A95
S11302105A9A14BC85E085BD8FEF87BD82E0809338
S11302206E0010928000109281002FE83BE0309322
S113023089002093880080936F005398239891EA53
S11302409093B0008093B1001092B4001092B30068
S11302508BE080BF83E080937F0086E080937C0006
S1130260EAE7F0E083E88083808180648083808192
S113027086FDFDCF10927C0083EA80937A0081E0B2
S113028080937B0081E090E00E94910B8F3F11F0FE
S11302908093660010923D0181E080931601809363
S11302A05A011092340110926E0180E990E00E948C
S11302B0910B8093330180913301887319F081E0AD
S11302C08093330110925E0110925D018FEF90E0F4
S11302D090935C0180935B011092390110923A0172
S11302E010923B0110923C0181E080930C0182E466
S11302F09FE090936D0180936C0180EB90E00E94ED
S1130300910BC82F81EB90E00E94910B2C2F30E0D1
S1130310382B3093700120936F0185E090E00E94A8
S1130320910B8093730189E090E00E94910B80937C
S11303305F018CE090E00E94910B8093710184E155
S113034090E00E94910B809372010F2EFEE3EF2E3A
S1130350F1E0FF2EF02D07E111E0C0E2D0E0CE0184
S11303600E94910BD82ECE0101960E94910B2D2D47
S113037030E0322F2227282BF701219331937F017C
S1130380CE01C0960E94910BD82ECE01C1960E9438
S1130390910B2D2D30E0322F2227282BF8012193A9
S11303A031938F012296CC33D105C9F67894DF912D
S11303B0CF911F910F91FF90EF90DF9008951F92BE
S11303C00F920FB60F9211248F930FB6F894A8953D
S11303D080916000886180936000109260000FBE7D
S11303E08F910F900FBE0F901F901895009741F0BA
S11303F0EFECF7E03197F1F700C000000197C1F787
S113040008958093B3006093B40008958FEF8093B0
S1130410B3008093B4008FE090E00E94F601089549
S113042080913D01811114C0F89486E080937C0092
S1130430EAE7F0E083E880838081806480838081C0
S113044086FDFDCF8091780090917900789408958D
S11304508FEF9FEF08953F924F925F926F927F923A
S11304608F929F92AF92BF92CF92DF92EF92FF92C0
S11304700F931F93CF93DF9300D000D0CDB7DEB797
S11304809A838983FC010280F381E02DFC83EB8352
S1130490E43823E0F2070CF082C09F018091170139
S11304A0909118018E179F0708F47CC08091190160
S11304B090911A018E179F0768F0EBE1F1E012E0CA
S11304C0819191918217930730F01F5F1E30C1F71D
S11304D01DE001C011E0812F90E0FC01EE0FFF1F31
S11304E0E95EFE4F60807180880F991FFC01EB5E0E
S11304F0FE4F80819181B301681B790B80E090E00D
S11305000E94FD099B01AC010E94E9086B017C017A
S11305104B815C81BA01550F880B990B0E94FF092E
S11305204B015C01B30180E090E00E94FD092B01C6
S11305303C01612F70E080E090E00E94FD0920E022
S113054030E040E05FE30E948B0A20E030E0A90144
S11305500E94E908A70196010E948B0A9B01AC0145
S1130560C301B2010E94E8089B01AC01C501B401BA
S11305700E94E80820E030E040E251E40E948B0A47
S11305800E94C7095B01C701B6010E94C709AB01FC
S1130590BC01C501BA010E94F80A362E04C03324F6
S11305A03A9401C0312C8B819C818D3B92400CF498
S11305B0DEC0E981FA81A080B180950180913E017D
S11305C090913F018A159B0508F4D4C080914001A5
S11305D0909141018A159B0580F0E2E4F1E012E07C
S11305E0819191918217930728F01F5F1E30C1F704
S11305F01AE568C01F3F11F4BFC011E0812F90E0DD
S1130600FC01EE0FFF1FE25CFE4F60807180880FDB
S1130610991FFC01E45CFE4F80819181B301681B4A
S1130620790B80E090E00E94FD099B01AC010E94DF
S1130630E9086B017C01B501BB0C880B990B0E9486
S1130640FF094B015C01B30180E090E00E94FD09C9
S11306502B013C01612F70E080E090E00E94FD09D5
S113066020E030E040E05FE30E948B0A20E030E0CD
S1130670A9010E94E908A70196010E948B0A9B0127
S1130680AC01C301B2010E94E8089B01AC01C501A1
S1130690B4010E94E80820E030E040E251E40E9406
S11306A08B0A0E94C7098B01C701B6010E94C709C2
S11306B0AB01BC01C801BA010E94F80A162F6F3FB2
S11306C009F455C0FFEF3F1609F44EC02B813C815D
S11306D0B901330F880B990B0E94FF096B017C0150
S11306E0632D70E080E090E00E94FD094B015C0105
S11306F0A701960160E070E081E694E40E94E808B6
S11307009B01AC01C501B4010E948B0A4B015C0141
S1130710612F70E080E090E00E94FD092B013C0114
S113072020E030E04FE254E4C701B6010E94E8083B
S11307309B01AC01C301B2010E948B0A9B01AC0175
S1130740C501B4010E94E90820E030E048E453E424
S11307500E94550920E030E044E052E40E94E90898
S11307600E94CE09862F0AC081E2810F07C081E270
S1130770830D04C010E0A6CF1AE5A4CF0F900F900C
S11307800F900F90DF91CF911F910F91FF90EF90F9
S1130790DF90CF90BF90AF909F908F907F906F909D
S11307A05F904F903F9008951F920F920FB60F9253
S11307B011242F933F934F935F936F937F938F9362
S11307C09F93AF93BF93EF93FF9320915D0130917B
S11307D05E0180915B0190915C01820F931F909365
S11307E05E0180935D018FEF90E090935C018093B4
S11307F05B018FEF87BD8091390190913A01A091FF
S11308003B01B0913C010196A11DB11D80933901BA
S113081090933A01A0933B01B0933C0180913D0138
S113082081112DC080916C0190916D0120915D0129
S113083030915E018217930710F580910C0184308A
S1130840F1F4E0910601F091070109950097B9F0E0
S11308500E947100882351F0E0910401F091050198
S1130860099510925E0110925D0109C00E94810BEE
S11308709C01332730935C0120935B0187BDFF917A
S1130880EF91BF91AF919F918F917F916F915F9104
S11308904F913F912F910F900FBE0F901F9018957D
S11308A080FF02C0559A01C0559881FF02C0549A36
S11308B001C0549882FF02C03B9A01C03B9883FF59
S11308C002C03A9A01C03A9884FF02C03D9A01C01E
S11308D03D9885FF02C03C9A08953C9808954C01C8
S11308E07B01712C0F2EF3EBAF2EB12CF02D0F2EBC
S11308F0F4EBCF2ED12CF02D66246A946894332423
S113090032F822242394CAE7D0E00F2EF8E14F2EC8
S1130910F02D0F2EF9E25F2EF02D00E610E0E091AD
S11309200C01F0E0E730F105D0F7EC5CFF4F0C94DC
S11309300C0BF89480B7877F80BF88818F7788837A
S113094014B817B81AB815B818B81BB80FB6F89475
S1130950A895409260000FBE50926000F80180811B
S11309608064808383B7817F846083BFF89483B776
S1130970816083BF7894889583B78E7F83BF789492
S113098010923D01529A5A9A88818068888387E53B
S113099092E00197F1F700C0000080B7886180BF42
S11309A08FE30E945004EFE1FEE43197F1F700C0B9
S11309B0000080913D01882361F083E00E9450048F
S11309C0FFEF20E782E0F15020408040E1F700C0D3
S11309D0000080E00E945004A2CF8CE00E945004EA
S11309E0EFECF7E03197F1F700C0000080E00E94DF
S11309F05004FFEF21EE84E0F15020408040E1F705
S1130A0000C000008CCF0E9410028B3AE2E09E07E7
S1130A1024F08CE00E94500482CF8938F2E09F07D2
S1130A2024F080E30E9450047ACF8736924024F069
S1130A308FE00E94500473CF83E00E9450046FCF74
S1130A40489916C0822D0E9450048FEC97E00197BC
S1130A50F1F700C0000080E00E9450049FEFE1EE37
S1130A60F4E09150E040F040E1F700C0000057CFBF
S1130A7080E00E94500453CF711003C0F401099523
S1130A80722C30920C01F701099549CF80910A012B
S1130A90811107C0F5011082F601108210920B013A
S1130AA03ECF90910A0180910B01981709F437CF3A
S1130AB080910A0180930B0180910A01813089F4AD
S1130AC0F5016082F60110828FE295E70197F1F754
S1130AD000C0000080917301F5018083F60110824B
S1130AE01ECF80910A01823089F4F5011082F6014B
S1130AF060828FE295E70197F1F700C000008091D2
S1130B005F01F5011082F601808309CFF50110829F
S1130B10F6016082F5016082F60160828FE295E75A
S1130B200197F1F700C0000080917201909171016A
S1130B30F5019083F6018083F2CE1F920F920FB6D7
S1130B400F9211248F939F9310928100109285002D
S1130B501092840081E08093160180935A011092D0
S1130B603D0110927C0093EA90937A0080937B007D
S1130B709F918F910F900FBE0F901F9018951F9209
S1130B800F920FB60F9211242F933F934F935F93BD
S1130B906F937F938F939F93AF93BF93CF93DF9381
S1130BA0EF93FF93209184003091850081E080933E
S1130BB03D0180911601882331F110928500109235
S1130BC0840081E08093810010926E0110921601DE
S1130BD080915A01882309F4CAC1EAE7F0E08081D0
S1130BE086FDFDCF80917800909179009093380133
S1130BF08093370181E080937C0093EA90937A009C
S1130C0080937B00B4C1C901875891098437994006
S1130C10A8F010928100109285001092840081E067
S1130C208093160180935A0110923D0110927C002A
S1130C3093EA90937A0080937B0099C126583109F6
S1130C40A4EFB0E00E94120BAA27BB27883078F4E7
S1130C5021E030E0F90102C0EE0FFF1F8A95E2F7B0
S1130C60CF0190916E01892B80936E0180C181E048
S1130C708093160180915A01882351F1EAE7F0E04C
S1130C80808186FDFDCF80917800909179009093CA
S1130C9036018093350110927C0083EA80937A00B8
S1130CA081E080937B0080916E01882361F0109233
S1130CB08100109285001092840081E080935A0193
S1130CC010923D0154C110925A01109234014FC147
S1130CD080913401E82FF0E0E05AFE4F90916E01CC
S1130CE090838F5F809334018C3009F040C110925F
S1130CF08100109285001092840081E080935A0153
S1130D0010923D01C0916A01D0916B0180E691E09F
S1130D100E94CA07C817D90709F029C1809169013F
S1130D20882354F0E0910801F091090165E371E032
S1130D3080E691E009951BC18858833030F05398C0
S1130D4023981092B4001092B3008091690190E04E
S1130D50FC01E058F109EB30F10508F008C1E55C4D
S1130D60FF4F0C940C0BEEE6F0E080818D7F8083C6
S1130D7016BCE0E0F0E70995E0E0F0E00995109298
S1130D800C01F5C081E080930C01F1C085E08093F3
S1130D900C01EDC082E080930C01E9C080910C014C
S1130DA0833009F4E4C080910C01843009F4DFC07D
S1130DB0539A239A1092B4001092B30083E0809364
S1130DC00C01D5C080916001823009F44BC028F435
S1130DD0882351F08130D9F18CC0833009F457C095
S1130DE0843009F468C085C080910C01863009F014
S1130DF0BEC060916F0180EB90E00E94990B6091FE
S1130E00700181EB90E00E94990B6091730185E081
S1130E1090E00E94990B60915F0189E090E00E944C
S1130E20990B609171018CE090E00E94990B6091A4
S1130E30720184E190E00E94990B539823981092D8
S1130E40B4001092B30081E080930C0152C08091F1
S1130E506101909162019093700180936F011092EF
S1130E600A014BC080910A01813039F490916301E9
S1130E7080917301981709F440C010920B0181E02E
S1130E8080930A01809163018093730136C080913D
S1130E900A01823031F49091640180915F019817C6
S1130EA061F110920B0182E080930A018091640148
S1130EB080935F0122C080910A01833061F4909194
S1130EC0660180917201981306C09091650180912A
S1130ED07101981791F010920B0183E080930A013D
S1130EE0E0E6F1E08581809371018681809372014F
S1130EF004C0809160018823D1F180910C01863077
S1130F00B1F1539A239A1092B4001092B30086E080
S1130F1080930C012CC080910C01863081F0539A8F
S1130F20239A1092B4001092B30080E00E945004FF
S1130F3010920A0110920B0186E080930C0181E06B
S1130F4090E09C010090600102C0220F331F0A94BC
S1130F50E2F780916F019091700182239323892B92
S1130F6021F081E080930A0102C010920A01FF91EE
S1130F70EF91DF91CF91BF91AF919F918F917F912D
S1130F806F915F914F913F912F910F900FBE0F90F2
S1130F901F901895FC01AC01465F5F4F8FEF9FEFE8
S1130FA021918227082E8295807F8025092E982FF3
S1130FB082958F700826869598278927880F880F31
S1130FC0880F8025E417F50759F7089584E891E020
S1130FD0089581E090E090930E0180930D010895AF
S1130FE080916F01909170018430910561F488E2E1
S1130FF08093100180930F0182E08093820183E04B
S1131000809374010895059761F488E28093100138
S113101080930F0182E08093820183E080937401C6
S1131020089588E28093100180930F0182E08093F9
S1131030820183E0809374010895CF93DF93EC01E0
S11310409CE0FE01A5E7B1E001900D929A95E1F7CD
S1131050888180931301CB010E942B02809381012C
S113106081E090E09093120180931101DF91CF9180
S11310700895CF93DF93C4E8D1E0198681E0888393
S1131080CE010E94CA079B878A87DF91CF9108957A
S113109080910D0190910E01019771F410920E014F
S11310A010920D0181E00E94500484E690E00E94B9
S11310B0F60180E00E9450040895209114013091BB
S11310C015012817390759F19093150180931401DC
S11310D0009729F460E080E00E94010208958130C5
S11310E0910549F40E940602609172018091710198
S11310F00E94010208958230910541F40E94060283
S113110060E0809173010E9401020895039739F40D
S11311100E94060260915F0180E00E94010208952E
S11311208091110190911201892B19F180E090E0D6
S11311300E945D08109212011092110180918101A8
S113114090911001891748F48091740190E00E94F5
S11311505D0882E00E945004089590910F01891760
S113116040F08091820190E00E945D0880E20E943C
S1131170500408950E94F90080916F0190917001CC
S11311808930910519F00297029798F486EE97E05A
S1131190909307018093060189EE97E090930501EF
S11311A08093040168E478E089E398E00E946F0486
S11311B00CC08DE198E0909309018093080160E9E7
S11311C078E080EF97E00E946F0480E090E008955B
S11311D05058BB27AA270E9400090C94510A0E9468
S11311E0430A38F00E944A0A20F039F49F3F19F468
S11311F026F40C94400A0EF4E095E7FB0C943A0AAA
S1131200E92F0E94620A58F3BA176207730784072A
S1131210950720F079F4A6F50C94840A0EF4E09571
S11312200B2EBA2FA02D0B01B90190010C01CA019C
S1131230A0011124FF27591B99F0593F50F4503E47
S113124068F11A16F040A22F232F342F4427585F39
S1131250F3CF469537952795A795F0405395C9F751
S11312607EF41F16BA0B620B730B840BBAF0915009
S1131270A1F0FF0FBB1F661F771F881FC2F70EC0A8
S1131280BA0F621F731F841F48F48795779567957B
S1131290B795F7959E3F08F0B0CF9395880F08F067
S11312A09927EE0F9795879508950E9469090C94E4
S11312B0510A0E944A0A58F00E94430A40F029F455
S11312C05F3F29F00C943A0A51110C94850A0C944E
S11312D0400A0E94620A68F39923B1F3552391F3FB
S11312E0951B550BBB27AA2762177307840738F091
S11312F09F5F5F4F220F331F441FAA1FA9F335D0EE
S11313000E2E3AF0E0E832D091505040E695001CA1
S1131310CAF72BD0FE2F29D0660F771F881FBB1F5B
S1131320261737074807AB07B0E809F0BB0B802D39
S1131330BF01FF2793585F4F3AF09E3F510578F065
S11313400C943A0A0C94850A5F3FE4F3983ED4F374
S1131350869577956795B795F7959F5FC9F7880F39
S1131360911D9695879597F90895E1E0660F771F8B
S1131370881FBB1F621773078407BA0720F0621B1C
S1131380730B840BBA0BEE1F88F7E09508950E9447
S1131390CE096894B1110C94850A08950E946A0AD2
S11313A088F09F5798F0B92F9927B751B0F0E1F022
S11313B0660F771F881F991F1AF0BA95C9F714C0D2
S11313C0B13091F00E94840AB1E008950C94840A2B
S11313D0672F782F8827B85F39F0B93FCCF386950B
S11313E077956795B395D9F73EF490958095709568
S11313F061957F4F8F4F9F4F0895E89409C097FBE5
S11314003EF490958095709561957F4F8F4F9F4FD7
S11314109923A9F0F92F96E9BB279395F69587951B
S113142077956795B795F111F8CFFAF4BB0F11F4DE
S113143060FF1BC06F5F7F4F8F4F9F4F16C0882385
S113144011F096E911C0772321F09EE8872F762FBB
S113145005C0662371F096E8862F70E060E02AF0FC
S11314609A95660F771F881FDAF7880F96958795E8
S113147097F9089597F99F6780E870E060E0089510
S11314809FEF80EC089500240A9416161706180698
S11314900906089500240A94121613061406050674
S11314A00895092E0394000C11F4882352F0BB0F05
S11314B040F4BF2B11F460FF04C06F5F7F4F8F4F68
S11314C09F4F089557FD9058440F551F59F05F3FA3
S11314D071F04795880F97FB991F61F09F3F79F052
S11314E087950895121613061406551FF2CF4695D4
S11314F0F1DF08C0161617061806991FF1CF869556
S11315007105610508940895E894BB276627772739
S1131510CB0197F908950E949E0A0C94510A0E94E7
S1131520430A38F00E944A0A20F0952311F00C94E3
S11315303A0A0C94400A11240C94850A0E94620A07
S113154070F3959FC1F3950F50E0551F629FF00112
S1131550729FBB27F00DB11D639FAA27F00DB11D2B
S1131560AA1F649F6627B00DA11D661F829F2227B4
S1131570B00DA11D621F739FB00DA11D621F839F3B
S1131580A00D611D221F749F3327A00D611D231F11
S1131590849F600D211D822F762F6A2F11249F575F
S11315A050409AF0F1F088234AF0EE0FFF1FBB1F62
S11315B0661F771F881F91505040A9F79E3F510521
S11315C080F00C943A0A0C94850A5F3FE4F3983E49
S11315D0D4F3869577956795B795F795E7959F5FCB
S11315E0C1F7FE2B880F911D9695879597F908955D
S11315F097FB072E16F4009407D077FD09D00E94BC
S1131600210B07FC05D03EF4909581959F4F0895DA
S1131610709561957F4F0895EE0FFF1F0590F4912B
S1131620E02D0994A29FB001B39FC001A39F700D48
S1131630811D1124911DB29F700D811D1124911DD6
S11316400895AA1BBB1B51E107C0AA1FBB1FA61705
S1131650B70710F0A61BB70B881F991F5A95A9F757
S113166080959095BC01CD0108958F929F92AF9281
S1131670BF92CF92DF92EF92FF92CF93DF93EC0170
S1131680688179818A819B81611571058105910544
S113169021F464E279ED8BE597E02DE133EF41E04D
S11316A050E00E94A70B49015A019B01AC01A7EA33
S11316B0B1E40E94C60B6B017C01ACEEB4EFA50152
S11316C094010E94D40BDC01CB018C0D9D1DAE1D39
S11316D0BF1DB7FF03C00197A109B0488883998350
S11316E0AA83BB839F77DF91CF91FF90EF90DF9028
S11316F0CF90BF90AF909F908F9008950E94350B2C
S1131700089580E091E00E94350B0895A0E0B0E0D8
S11317108093000190930101A0930201B09303010F
S11317200895F999FECF92BD81BDF89A992780B5A5
S11317300895262FF999FECF1FBA92BD81BD20BD11
S11317400FB6F894FA9AF99A0FBE01960895052EE9
S113175097FB1EF400940E94BE0B57FD07D00E9415
S1131760D90B07FC03D04EF40C94BE0B5095409556
S1131770309521953F4F4F4F5F4F08959095809539
S1131780709561957F4F8F4F9F4F08950E94120B64
S1131790A59F900DB49F900DA49F800D911D1124C1
S11317A00895B7FF0C94C60B0E94C60B821B930BC3
S11317B00895A1E21A2EAA1BBB1BFD010DC0AA1F8E
S11317C0BB1FEE1FFF1FA217B307E407F50720F0A6
S11317D0A21BB30BE40BF50B661F771F881F991F21
S11317E01A9469F760957095809590959B01AC016A
S10D17F0BD01CF010895F894FFCF66
S10D17FA01000000F800F500F400FF
S9030000FC
