:100000000C9446000C946F000C946F000C946F00DD
:100010000C946F000C946F000C94DF010C946F0033
:100020000C946F000C946F000C946F000C949D0561
:100030000C946F000C946F000C94D4030C946F001C
:100040000C946F000C946F000C946F000C946F0074
:100050000C946F000C946F000C946F000C94BF050F
:100060000C946F000C946F009904ED0403053C059B
:10007000430520054605B306B707B707BC06BF060C
:10008000C206C606CA06CE068B07E20611241FBEAC
:10009000CFEFD8E0DEBFCDBF14BE0FB6F894A89561
:1000A00080916000886180936000109260000FBEB4
:1000B00011E0A0E0B1E0E0EDFAE102C005900D92A0
:1000C000A431B107D9F721E0A4E1B1E001C01D924C
:1000D000AA39B207E1F70E94280A0C94660D0C9425
:1000E00000000FB6F894A4B120913E012A2B24B948
:1000F00021E030913E01203029F0000025B1232B72
:1001000025B904C000000000000000C0000000008D
:100110000000309525B1232325B92EEA2A95F1F761
:100120002BEE30B735FF0AC0A4B930913E013095AF
:1001300025B1232325B90FBE80E0089500002A953C
:1001400081F721E030913E01203029F0000025B1F7
:10015000232B25B904C000000000000000C00000EF
:1001600000000000309525B1232325B9000024E5C7
:100170002A95F1F7FC018CE0619170E0660F771F22
:10018000616072609AE041E050E09A0126233723D3
:10019000232B30913E01203029F0000025B1232B84
:1001A00025B904C000000000000000C000000000ED
:1001B0000000309525B1232325B9000021E52A95BB
:1001C000F1F7440F551F9A9501F78A95A9F620B7C4
:1001D000206120BFA4B930913E01309525B1232381
:1001E00025B90FBE81E00895089580E090E008955C
:1001F0000895DF92EF92FF920F931F93CF93DF93B7
:10020000F89414B817B81AB815B818B81BB8529A99
:100210005A9A14BC85E085BD8FEF87BD82E080933C
:100220006E0010928000109281002FE83BE0309326
:1002300089002093880080936F005398239891EA57
:100240009093B0008093B1001092B4001092B3006C
:100250008BE080BF83E080937F0086E080937C000A
:10026000EAE7F0E083E88083808180648083808196
:1002700086FDFDCF10927C0083EA80937A0081E0B6
:1002800080937B0081E090E00E94FC0C8F3F11F096
:10029000809366001092480181E080932101809351
:1002A000650110923F011092790180E990E00E946F
:1002B000FC0C80933E0180913E01887319F081E02F
:1002C00080933E0110926901109268018FEF90E0D7
:1002D000909367018093660110924401109245014A
:1002E000109246011092470181E08093160182E44A
:1002F0009FE0909378018093770180EB90E00E94DB
:10030000FC0CC82F81EB90E00E94FC0C2C2F30E0FD
:10031000382B30937B0120937A0185E090E00E9496
:10032000FC0C80937E0189E090E00E94FC0C80939D
:100330006A018CE090E00E94FC0C80937C0184E1D7
:1003400090E00E94FC0C80937D010F2EF9E4EF2ECB
:10035000F1E0FF2EF02D02E211E0C0E2D0E0CE018C
:100360000E94FC0CD82ECE0101960E94FC0C2D2D73
:1003700030E0322F2227282BF701219331937F0180
:10038000CE01C0960E94FC0CD82ECE01C1960E94D0
:10039000FC0C2D2D30E0322F2227282BF801219341
:1003A00031938F012296CC33D105C9F67894DF9131
:1003B000CF911F910F91FF90EF90DF9008951F92C2
:1003C0000F920FB60F9211248F930FB6F894A89541
:1003D00080916000886180936000109260000FBE81
:1003E0008F910F900FBE0F901F901895009741F0BE
:1003F000EFECF7E03197F1F700C000000197C1F78B
:1004000008958093B3006093B40008958FEF8093B4
:10041000B3008093B4008FE090E00E94F60108954D
:1004200080914801811114C0F89486E080937C008B
:10043000EAE7F0E083E880838081806480838081C4
:1004400086FDFDCF80917800909179007894089591
:100450008FEF9FEF08953F924F925F926F927F923E
:100460008F929F92AF92BF92CF92DF92EF92FF92C4
:100470000F931F93CF93DF9300D000D0CDB7DEB79B
:100480009A838983FC010280F381E02DFC83EB8356
:10049000E43823E0F2070CF082C09F018091220132
:1004A000909123018E179F0708F47CC0809124014E
:1004B000909125018E179F0768F0E6E2F1E012E0C7
:1004C000819191918217930730F01F5F1E30C1F721
:1004D0001DE001C011E0812F90E0FC01EE0FFF1F35
:1004E000EE5DFE4F60807180880F991FFC01E05E19
:1004F000FE4F80819181B301681B790B80E090E011
:100500000E94680B9B01AC010E94540A6B017C01A4
:100510004B815C81BA01550F880B990B0E946A0BC5
:100520004B015C01B30180E090E00E94680B2B015D
:100530003C01612F70E080E090E00E94680B20E0B9
:1005400030E040E05FE30E94F60B20E030E0A901DC
:100550000E94540AA70196010E94F60B9B01AC0170
:10056000C301B2010E94530A9B01AC01C501B40151
:100570000E94530A20E030E040E251E40E94F60B72
:100580000E94320B5B01C701B6010E94320BAB0126
:10059000BC01C501BA010E94630C362E04C033248D
:1005A0003A9401C0312C8B819C818D3B92400CF49C
:1005B000DEC0E981FA81A080B18095018091490176
:1005C00090914A018A159B0508F4D4C080914B0193
:1005D00090914C018A159B0580F0EDE4F1E012E06A
:1005E000819191918217930728F01F5F1E30C1F708
:1005F0001AE568C01F3F11F4BFC011E0812F90E0E1
:10060000FC01EE0FFF1FE75BFE4F60807180880FDB
:10061000991FFC01E95BFE4F80819181B301681B4A
:10062000790B80E090E00E94680B9B01AC010E9476
:10063000540A6B017C01B501BB0C880B990B0E941D
:100640006A0B4B015C01B30180E090E00E94680BF3
:100650002B013C01612F70E080E090E00E94680B6C
:1006600020E030E040E05FE30E94F60B20E030E065
:10067000A9010E94540AA70196010E94F60B9B0152
:10068000AC01C301B2010E94530A9B01AC01C50138
:10069000B4010E94530A20E030E040E251E40E949D
:1006A000F60B0E94320B8B01C701B6010E94320B80
:1006B000AB01BC01C801BA010E94630C162F6F3F49
:1006C00009F455C0FFEF3F1609F44EC02B813C8161
:1006D000B901330F880B990B0E946A0B6B017C01E7
:1006E000632D70E080E090E00E94680B4B015C019C
:1006F000A701960160E070E081E694E40E94530A4D
:100700009B01AC01C501B4010E94F60B4B015C01D9
:10071000612F70E080E090E00E94680B2B013C01AB
:1007200020E030E04FE254E4C701B6010E94530AD2
:100730009B01AC01C301B2010E94F60B9B01AC010D
:10074000C501B4010E94540A20E030E048E453E4BB
:100750000E94C00A20E030E044E052E40E94540AC3
:100760000E94390B862F0AC081E2810F07C081E207
:10077000830D04C010E0A6CF1AE5A4CF0F900F9010
:100780000F900F90DF91CF911F910F91FF90EF90FD
:10079000DF90CF90BF90AF909F908F907F906F90A1
:1007A0005F904F903F9008951F920F920FB60F9257
:1007B00011242F933F934F935F936F937F938F9366
:1007C0009F93AF93BF93EF93FF9320916801309174
:1007D00069018091660190916701820F931F909348
:1007E0006901809368018FEF90E090936701809397
:1007F00066018FEF87BD8091440190914501A091E2
:100800004601B09147010196A11DB11D809344019D
:1008100090934501A0934601B09347018091480110
:1008200081112DC08091770190917801209168010C
:10083000309169018217930710F580911601843079
:10084000F1F4E0910601F091070109950097B9F0E4
:100850000E947100882351F0E0910401F09105019C
:100860000995109269011092680109C00E94EC0C70
:100870009C013327309367012093660187BDFF9168
:10088000EF91BF91AF919F918F917F916F915F9108
:100890004F913F912F910F900FBE0F901F90189581
:1008A00080FF02C0559A01C0559881FF02C0549A3A
:1008B00001C0549882FF02C03B9A01C03B9883FF5D
:1008C00002C03A9A01C03A9884FF02C03D9A01C022
:1008D0003D9885FF02C03C9A08953C9808954C01CC
:1008E0007B01712C0F2EF3EBAF2EB12CF02D0F2EC0
:1008F000F4EBCF2ED12CF02D66246A946894332427
:1009000032F822242394CAE7D0E00F2EF8E14F2ECC
:10091000F02D0F2EF9E25F2EF02D00E610E0E091B1
:100920001601F0E0E730F105D0F7EC5CFF4F0C94D6
:10093000770CF89480B7877F80BF88818F77888312
:1009400014B817B81AB815B818B81BB80FB6F89479
:10095000A895409260000FBE50926000F80180811F
:100960008064808383B7817F846083BFF89483B77A
:10097000816083BF7894889583B78E7F83BF789496
:1009800010924801529A5A9A88818068888387E534
:1009900092E00197F1F700C0000080B7886180BF46
:1009A0008FE30E945004EFE1FEE43197F1F700C0BD
:1009B000000080914801882361F083E00E94500488
:1009C000FFEF20E782E0F15020408040E1F700C0D7
:1009D000000080E00E945004A2CF8CE00E945004EE
:1009E000EFECF7E03197F1F700C0000080E00E94E3
:1009F0005004FFEF21EE84E0F15020408040E1F709
:100A000000C000008CCF0E9410028B3AE2E09E07EB
:100A100024F08CE00E94500482CF8938F2E09F07D6
:100A200024F080E30E9450047ACF8736924024F06D
:100A30008FE00E94500473CF83E00E9450046FCF78
:100A4000489916C0822D0E9450048FEC97E00197C0
:100A5000F1F700C0000080E00E9450049FEFE1EE3B
:100A6000F4E09150E040F040E1F700C0000057CFC3
:100A700080E00E94500453CF711003C0F401099527
:100A8000722C30921601F701099549CF809114011B
:100A9000811107C0F5011082F60110821092150134
:100AA0003ECF9091140180911501981709F437CF2A
:100AB000809114018093150180911401813089F493
:100AC000F5016082F60110828FE295E70197F1F758
:100AD00000C0000080917E01F5018083F601108244
:100AE0001ECF80911401823089F4F5011082F60145
:100AF00060828FE295E70197F1F700C000008091D6
:100B00006A01F5011082F601808309CFF501108298
:100B1000F6016082F5016082F60160828FE295E75E
:100B20000197F1F700C0000080917D0190917C0158
:100B3000F5019083F6018083F2CE1F920F920FB6DB
:100B40000F9211248F939F93109281001092850031
:100B50001092840081E080932101809365011092BE
:100B6000480110927C0093EA90937A0080937B0076
:100B70009F918F910F900FBE0F901F9018951F920D
:100B80000F920FB60F9211242F933F934F935F93C1
:100B90006F937F938F939F93AF93BF93CF93DF9385
:100BA000EF93FF93209184003091850081E0809342
:100BB000480180912101882331F110928500109223
:100BC000840081E0809381001092790110922101CC
:100BD00080916501882309F4CAC1EAE7F0E08081C9
:100BE00086FDFDCF8091780090917900909343012C
:100BF0008093420181E080937C0093EA90937A0095
:100C000080937B00B4C1C90187589109843799400A
:100C1000A8F010928100109285001092840081E06B
:100C200080932101809365011092480110927C000D
:100C300093EA90937A0080937B0099C126583109FA
:100C4000A4EFB0E00E947D0CAA27BB27883078F47F
:100C500021E030E0F90102C0EE0FFF1F8A95E2F7B4
:100C6000CF0190917901892B8093790180C181E036
:100C70008093210180916501882351F1EAE7F0E03A
:100C8000808186FDFDCF80917800909179009093CE
:100C900041018093400110927C0083EA80937A00A6
:100CA00081E080937B0080917901882361F010922C
:100CB0008100109285001092840081E0809365018C
:100CC0001092480154C11092650110923F014FC12A
:100CD00080913F01E82FF0E0E559FE4F90917901B6
:100CE00090838F5F80933F018C3009F040C1109258
:100CF0008100109285001092840081E0809365014C
:100D000010924801C0917501D09176018BE691E077
:100D10000E94CA07C817D90709F029C18091740138
:100D2000882354F0E0910801F091090160E471E03A
:100D30008BE691E009951BC18858833030F05398B9
:100D400023981092B4001092B3008091740190E047
:100D5000FC01E058F109EB30F10508F008C1E55C51
:100D6000FF4F0C94770CEEE6F0E080818D7F80835E
:100D700016BCE0E0F0E70995E0E0F0E0099510929C
:100D80001601F5C081E080931601F1C085E08093E3
:100D90001601EDC082E080931601E9C08091160132
:100DA000833009F4E4C080911601843009F4DFC077
:100DB000539A239A1092B4001092B30083E0809368
:100DC0001601D5C080916B01823009F44BC028F424
:100DD000882351F08130D9F18CC0833009F457C099
:100DE000843009F468C085C080911601863009F00E
:100DF000BEC060917A0180EB90E00E94040D60918A
:100E00007B0181EB90E00E94040D60917E0185E002
:100E100090E00E94040D60916A0189E090E00E94D8
:100E2000040D60917C018CE090E00E94040D6091C3
:100E30007D0184E190E00E94040D53982398109264
:100E4000B4001092B30081E08093160152C08091EB
:100E50006C0190916D0190937B0180937A011092C7
:100E600014014BC080911401813039F490916E01CE
:100E700080917E01981709F440C01092150181E01D
:100E80008093140180916E0180937E0136C0809121
:100E90001401823031F490916F0180916A019817AA
:100EA00061F11092150182E08093140180916F012D
:100EB00080936A0122C080911401833061F4909183
:100EC000710180917D01981306C09091700180910D
:100ED0007C01981791F01092150183E08093140122
:100EE000EBE6F1E0858180937C01868180937D0132
:100EF00004C080916B018823D1F180911601863066
:100F0000B1F1539A239A1092B4001092B30086E084
:100F1000809316012CC080911601863081F0539A7F
:100F2000239A1092B4001092B30080E00E94500403
:100F3000109214011092150186E08093160181E051
:100F400090E09C0100906B0102C0220F331F0A94B5
:100F5000E2F780917A0190917B0182239323892B80
:100F600021F081E08093140102C010921401FF91DE
:100F7000EF91DF91CF91BF91AF919F918F917F9131
:100F80006F915F914F913F912F910F900FBE0F90F6
:100F90001F901895FC01AC01465F5F4F8FEF9FEFEC
:100FA00021918227082E8295807F8025092E982FF7
:100FB00082958F700826869598278927880F880F35
:100FC000880F8025E417F50759F708958CE891E01C
:100FD000089581E0809320010895CF93DF93EC0181
:100FE0009CE0FE01A0E8B1E001900D929A95E1F736
:100FF000888180931E01898180931D01CB010E940D
:101000002B0280931C0140911E0150E020917F0132
:1010100030E0B901615071094617570799F4809380
:101020000C01833230F580E10E94500484E690E0A8
:101030000E94F60180E00E94500484E690E00E9445
:10104000F60117C0225031094217530791F48093DB
:101050000B018D3370F084E00E94500484E690E030
:101060000E94F60180E00E94500484E690E00E9415
:10107000F60181E080931F01DF91CF910895809167
:101080002001813059F4109220010E94500484E61E
:1010900090E00E94F60180E00E9450040895CF93F2
:1010A000DF93CCE8D1E0198680917F01888381E0CD
:1010B0008983CE010E94CA079B878A87DF91CF91DF
:1010C0000895CF93DF93CCE8D1E0198680917F011A
:1010D00088831982CE010E94CA079B878A87DF9185
:1010E000CF91089520911A0130E02817390739F17E
:1010F00080931A01811105C060E080E00E94010226
:101100000895813049F40E94060260917D0180912A
:101110007C010E9401020895823041F40E9406027F
:1011200060E080917E010E9401020895833039F4CD
:101130000E94060260916A0180E00E940102089507
:1011400081E090E00E947208089590911F01992318
:1011500009F47CC090911E01981378C010921F0171
:1011600080911C0180931B01681730F081E080930F
:101170000D018093180162C090910E01913099F495
:1011800090911301981718F482E080930E0181E08A
:1011900090E00E94720888EE93E00E94F60181E0E0
:1011A0000E9450044BC0923039F580E090E00E94DC
:1011B000720880E10E9450048091120190E00E9428
:1011C000720820910A018CED95E0AC01249FC001CA
:1011D000259F900D11240E94F60181E080930A0161
:1011E00081E090E00E9472088CED95E00E94F6018B
:1011F00083E080930E0122C0933001F585E00E94C8
:10120000500490911B01809113018917A0F48091E3
:101210001201833021F482E08093120105C08230F4
:1012200019F483E08093120183E080930A0182E045
:1012300080930E0103C081E080930E0180911B0119
:101240008093130180E090E00E9472080895CF938C
:10125000DF9380910F01813031F40E94A00882E079
:1012600080930F01F2C0823021F581E10E94500489
:1012700080911F01882309F4E8C020911E0130E00D
:1012800080917F0190E001972817390709F0DDC0B0
:1012900080911D018111C8C080E090E00E94720819
:1012A00010921F01D2C083E080930F0110921F01A2
:1012B000CCC0833009F056C084E10E945004809174
:1012C000180181112FC080911F018823E9F020911E
:1012D0001E01422F50E080917F0190E00197481756
:1012E000590791F080911D01813071F480911C01AA
:1012F000883250F410921F0194E090930F012093D4
:10130000980180939901A1C080917F01823029F4D6
:1013100063E281E00E94A50898C068E281500E94C3
:10132000A50893C080917F01823021F485E08093ED
:101330000F018BC080911F01882309F486C0809122
:101340001E0190911901891380C0809398018091AA
:101350001C018093990184E080930F0181E08093C8
:101360000D0173C0843009F042C084E10E94500432
:1013700080E090E00E94720880911F01882329F18B
:1013800080911E0190919801891709F452C0209113
:101390001C01909199012917C0F480939801109233
:1013A0001F0113C08091110190E00E94720880E932
:1013B00091E00E94F60109C08091100190E00E9426
:1013C000720880E991E00E94F60180910C0183325D
:1013D00058F480910B018C3338F080E090E00E944B
:1013E000720885E080930F0110921F012EC0853096
:1013F00061F580E090E00E94720885E10E9450044F
:1014000080917F01833030F086E080930F0181E08E
:1014100080931701CCE8D1E081E08983CE010E945E
:10142000CA079B878A8711C080911D01813069F4AA
:101430003ACF10921F0180911C0180931B01809371
:101440009901853208F0B8CFADCFDF91CF910895E3
:101450000E94F90080917A01815080937F012DEEE6
:1014600037E0309309012093080126EE37E03093EE
:1014700007012093060129EE37E030930501209300
:101480000401813039F46FE378E08FE498E00E9442
:101490006F0406C067E279E081E698E00E946F047D
:1014A00080E090E008955058BB27AA270E946B0A5D
:1014B0000C94BC0B0E94AE0B38F00E94B50B20F0D0
:1014C00039F49F3F19F426F40C94AB0B0EF4E0951D
:1014D000E7FB0C94A50BE92F0E94CD0B58F3BA172C
:1014E000620773078407950720F079F4A6F50C943A
:1014F000EF0B0EF4E0950B2EBA2FA02D0B01B901C6
:1015000090010C01CA01A0011124FF27591B99F079
:10151000593F50F4503E68F11A16F040A22F232F85
:10152000342F4427585FF3CF469537952795A795D5
:10153000F0405395C9F77EF41F16BA0B620B730B7C
:10154000840BBAF09150A1F0FF0FBB1F661F771FED
:10155000881FC2F70EC0BA0F621F731F841F48F4A2
:10156000879577956795B795F7959E3F08F0B0CF2B
:101570009395880F08F09927EE0F97958795089512
:101580000E94D40A0C94BC0B0E94B50B58F00E9428
:10159000AE0B40F029F45F3F29F00C94A50B5111DC
:1015A0000C94F00B0C94AB0B0E94CD0B68F39923B9
:1015B000B1F3552391F3951B550BBB27AA2762174F
:1015C0007307840738F09F5F5F4F220F331F441F5C
:1015D000AA1FA9F335D00E2E3AF0E0E832D0915090
:1015E0005040E695001CCAF72BD0FE2F29D0660F7D
:1015F000771F881FBB1F261737074807AB07B0E8C0
:1016000009F0BB0B802DBF01FF2793585F4F3AF0C5
:101610009E3F510578F00C94A50B0C94F00B5F3FA6
:10162000E4F3983ED4F3869577956795B795F7954B
:101630009F5FC9F7880F911D9695879597F9089533
:10164000E1E0660F771F881FBB1F621773078407CF
:10165000BA0720F0621B730B840BBA0BEE1F88F7DE
:10166000E09508950E94390B6894B1110C94F00B29
:1016700008950E94D50B88F09F5798F0B92F9927AD
:10168000B751B0F0E1F0660F771F881F991F1AF06D
:10169000BA95C9F714C0B13091F00E94EF0BB1E0D8
:1016A00008950C94EF0B672F782F8827B85F39F0D7
:1016B000B93FCCF3869577956795B395D9F73EF406
:1016C00090958095709561957F4F8F4F9F4F0895AE
:1016D000E89409C097FB3EF49095809570956195CC
:1016E0007F4F8F4F9F4F9923A9F0F92F96E9BB2782
:1016F0009395F695879577956795B795F111F8CFFE
:10170000FAF4BB0F11F460FF1BC06F5F7F4F8F4F68
:101710009F4F16C0882311F096E911C0772321F05E
:101720009EE8872F762F05C0662371F096E8862FF6
:1017300070E060E02AF09A95660F771F881FDAF74D
:10174000880F9695879597F9089597F99F6780E890
:1017500070E060E008959FEF80EC089500240A9403
:101760001616170618060906089500240A9412167C
:101770001306140605060895092E0394000C11F4AF
:10178000882352F0BB0F40F4BF2B11F460FF04C05C
:101790006F5F7F4F8F4F9F4F089557FD9058440FB5
:1017A000551F59F05F3F71F04795880F97FB991FC0
:1017B00061F09F3F79F0879508951216130614067D
:1017C000551FF2CF4695F1DF08C01616170618060A
:1017D000991FF1CF86957105610508940895E894E5
:1017E000BB2766277727CB0197F908950E94090C3C
:1017F0000C94BC0B0E94AE0B38F00E94B50B20F08D
:10180000952311F00C94A50B0C94AB0B11240C94A4
:10181000F00B0E94CD0B70F3959FC1F3950F50E034
:10182000551F629FF001729FBB27F00DB11D639F92
:10183000AA27F00DB11DAA1F649F6627B00DA11D38
:10184000661F829F2227B00DA11D621F739FB00DDE
:10185000A11D621F839FA00D611D221F749F33274E
:10186000A00D611D231F849F600D211D822F762FE7
:101870006A2F11249F5750409AF0F1F088234AF0C4
:10188000EE0FFF1FBB1F661F771F881F9150504030
:10189000A9F79E3F510580F00C94A50B0C94F00B1A
:1018A0005F3FE4F3983ED4F3869577956795B795B7
:1018B000F795E7959F5FC1F7FE2B880F911D9695D1
:1018C000879597F9089597FB072E16F4009407D093
:1018D00077FD09D00E948C0C07FC05D03EF4909552
:1018E00081959F4F0895709561957F4F0895EE0FF4
:1018F000FF1F0590F491E02D0994A29FB001B39FC2
:10190000C001A39F700D811D1124911DB29F700D08
:10191000811D1124911D0895AA1BBB1B51E107C015
:10192000AA1FBB1FA617B70710F0A61BB70B881F6F
:10193000991F5A95A9F780959095BC01CD010895FE
:101940008F929F92AF92BF92CF92DF92EF92FF92CF
:10195000CF93DF93EC01688179818A819B81611546
:1019600071058105910521F464E279ED8BE597E03D
:101970002DE133EF41E050E00E94120D49015A0180
:101980009B01AC01A7EAB1E40E94310D6B017C011F
:10199000ACEEB4EFA50194010E943F0DDC01CB0138
:1019A0008C0D9D1DAE1DBF1DB7FF03C00197A10982
:1019B000B04888839983AA83BB839F77DF91CF91B7
:1019C000FF90EF90DF90CF90BF90AF909F908F905F
:1019D00008950E94A00C089580E091E00E94A00C60
:1019E0000895A0E0B0E08093000190930101A093DE
:1019F0000201B09303010895F999FECF92BD81BD14
:101A0000F89A992780B50895262FF999FECF1FBA25
:101A100092BD81BD20BD0FB6F894FA9AF99A0FBE17
:101A200001960895052E97FB1EF400940E94290D3F
:101A300057FD07D00E94440D07FC03D04EF40C94D0
:101A4000290D50954095309521953F4F4F4F5F4F51
:101A5000089590958095709561957F4F8F4F9F4F1A
:101A600008950E947D0CA59F900DB49F900DA49F9A
:101A7000800D911D11240895B7FF0C94310D0E9423
:101A8000310D821B930B0895A1E21A2EAA1BBB1BDA
:101A9000FD010DC0AA1FBB1FEE1FFF1FA217B3073A
:101AA000E407F50720F0A21BB30BE40BF50B661F50
:101AB000771F881F991F1A9469F760957095809514
:101AC00090959B01AC01BD01CF010895F894FFCF23
:101AD00001000000F800F500F40001FFFF01010122
:041AE000020303FFFB
:00000001FF
